:1011CE00120100010000004047050210010001025B
:1011DE00000109027400010103A000090400000EC1
:1011EE00FF0000040705010340000107050202404D
:1011FE00000007050302400000070504024000003E
:10120E00070505024000000705060240000007051D
:10121E000702400000070581034000010705820216
:10122E0040000007058302400000070584024000CD
:10123E0000070585024000000705860240000007F2
:10124E00058702400000040309041A0353005400EA
:10125E004100550042004C0049002D00550053003E
:10126E00420049001C0344002000320034003200CA
:10127E002000780078007800200030003100410016
:02128E0000005E
:108B5F009002C8EBF0A3EAF0A3E9F09002C8E0FBA3
:108B6F00A3E0FAA3E0F912853624FE7003028C50BD
:108B7F00147003028CE624FE7003028D66046003FA
:108B8F00028DA890000112854F24FD602B147003F5
:108B9F00028DE214604D24037074907F96E044D0F0
:108BAF00F0907F97E04423F0907F96E054DFF090B1
:108BBF007F97E0F012B48322907F96E04460F090AC
:108BCF007F97E04422F0907F96E0546FF0907F976C
:108BDF00E054FEF09002C8E0FBA3E0FAA3E0F91224
:108BEF00B48322907F96E044D0F0907F97E04422A8
:108BFF00F0907F96E054DFF0907F97E054FEF09076
:108C0F0002C8E0FBA3E0FAA3E0F912B483229002BA
:108C1F00C8E0FBA3E0FAA3E0F9900001740112850C
:108C2F008E907F96E044B0F0907F97E04421F090D3
:108C3F007F96E054BFF0907F97E054FDF012B4831D
:108C4F00229002C8E0FBA3E0FAA3E0F99000011222
:108C5F00854F24FE602524FE6003047047907F96A5
:108C6F00E044F0F0907F97E04403F0907F96E0F0BF
:108C7F00907F97E054DFF012B48322907F96E04408
:108C8F00F0F0907F97E04420F0907F96E0F0907F97
:108C9F0097E054FCF09002C8E0FBA3E0FAA3E0F9E0
:108CAF0012B483229002C8E0FBA3E0FAA3E0F9908C
:108CBF000001740112858E907F96E044B0F0907F92
:108CCF0097E04421F0907F96E054BFF0907F97E0BB
:108CDF0054FDF012B483229002C8E0FBA3E0FAA384
:108CEF00E0F990000112854F24FD600B14600C24F5
:108CFF0002703112B7462212B74622907F96E04497
:108D0F0070F0907F97E0F0907F96E0547FF0907F27
:108D1F0097E054DCF09002C8E0FBA3E0FAA3E0F97F
:108D2F0012B483229002C8E0FBA3E0FAA3E0F9900B
:108D3F000001740112858E907F96E044B0F0907F11
:108D4F0097E04421F0907F96E054BFF0907F97E03A
:108D5F0054FDF012B483229002C8E0FBA3E0FAA303
:108D6F00E0F990000112854F24FE60671460648063
:108D7F0000900001740112858E907F96E044B0F050
:108D8F00907F97E04421F0907F96E054BFF0907F62
:108D9F0097E054FDF012B483229002C8E0FBA3E0E9
:108DAF00FAA3E0F9740112857C907F96E044B0F04D
:108DBF00907F97E04421F0907F96E054BFF0907F32
:108DCF0097E054FDF09002C8E0FBA3E0FAA3E0F9AE
:048DDF0012B4832225
:0CB70200E490025CF0A3F0A37405F022B8
:10A5AA009002CBEFF0A3EDF0A3EBF07B017A0279F6
:10A5BA00CB128B5F90025DE0FF700AA3E0FE90026F
:10A5CA005CE06E601490025CE02401FDE433FC7EE2
:10A5DA0000EDB5070AEEB504067E007F0180047E11
:10A5EA00007F00EF64014E7004C20D803C90025C53
:10A5FA00E075F003A4245FF9740235F0A801FC7D2C
:10A60A00017B017A0279CB7E007F031287BB90021D
:10A61A005EE0FF90025CE0FEB507047F008003EE77
:0BA62A0004FF90025CEFF0D20DA20DC7
:01A635002202
:0BAA4C009002CEEBF0A3EAF0A3E9F0CB
:10AA5700D20E90025CE0FFA3E0FEB507047F018001
:10AA6700027F00BF0104C20E8046EE75F003A424E6
:10AA77005FF9740235F0FA7B01C003C0029002CE81
:10AA8700E0FBA3E0FAA3E0F8AC02AD03D002D003E9
:10AA97007E007F031287BB90025EE0FF90025DE0BD
:10AAA700FEB507047F008003EE04FF90025DEFF020
:02AAB700A20EED
:01AAB900227A
:10A1C4009002C412868F00000000C202C200C203C3
:10A1D400C20112AABAD2E843D820907FAB74FFF030
:10A1E400907FAFE04401F0907FAEE0441DF0D2AF29
:10A1F400200158200105D21C12B3829002C4128699
:10A204008F000000007F487E927D007C009002C495
:10A21400E0F8A3E0F9A3E0FAA3E0FBC312865E50E2
:10A22400CF2001CC9002C4E0FCA3E0FDA3E0FEA398
:10A23400E07A00790078002401FFEA3EFEE93DFD62
:10A24400E83CFC9002C412868380BA12AE3430011A
:10A2540005129052C20130021A12AEFE5015C2020B
:10A2640012B57D200007907FD6E020E7F312B6A256
:08A2740012B78412B77180D605
:01A27C0022BF
:10905200907FE9E0700302914C1470030291C824DE
:10906200FE700302923C24FB7003029146147003CB
:1090720002914014700302913414700302913A2455
:1090820005600302929012B77B400302929C907F8C
:10909200EBE024FE601914604D2402600302912A61
:1090A2007411907FD4F074CE907FD5F002929C9090
:1090B2007FEAE0FF12A8599002D1EBF0A3EAF0A3F5
:1090C200E9F04A60179002D1E0A3E0FAA3E0F9EADE
:1090D200907FD4F0E9907FD5F002929C907FB4E02B
:1090E2004401F002929C907FEAE0FF12ADDB900215
:1090F200D1EBF0A3EAF0A3E9F04A60229002D1E0BA
:10910200A3E0FAA3E0F9EA907FD4F0E9907FD5F0EA
:10911200E4907FB5F0907FB47402F002929C907F4D
:10912200B4E04401F002929C907FB4E04401F0026A
:10913200929C12B6F202929C12B72C02929C12B727
:109142002202929C12B6E202929C12B77D40030266
:10915200929C907FE8E0247F6024146031240270A6
:109162005BA200E433FF25E0FFA203E4334F907FCC
:1091720000F0E4A3F0907FB57402F002929CE490B8
:109182007F00F0A3F0907FB57402F002929C907F72
:10919200ECE0F45480FFC4540FFFE054072F25E0A5
:1091A20024B4F582E4347FF583E054FD907F00F02F
:1091B200E4A3F0907FB57402F002929C907FB4E039
:1091C2004401F002929C12B77F400302929C907F6E
:1091D200E8E024FE601D2402600302929C907FEA74
:1091E200E0B40105C20002929C907FB4E04401F019
:1091F20002929C907FEAE07038907FECE0F4548019
:10920200FFC4540FFFE054072F25E024B4F582E495
:10921200347FF583E4F0907FECE05480FF13131366
:10922200541FFFE054072F907FD7F0E04420F080D6
:1092320069907FB4E04401F0806012B781505B9086
:109242007FE8E024FE60182402704F907FEAE0B4C9
:109252000104D2008044907FB4E04401F0803B904E
:109262007FEAE07020907FECE0F45480FFC4540F5A
:10927200FFE054072F25E024B4F582E4347FF58320
:109282007401F08015907FB4E04401F0800C12A5C7
:109292000E5007907FB4E04401F0907FB4E04402A6
:0192A200F0DB
:0192A30022A8
:0300330002B76DA4
:04B76D0053D8EF328C
:10AEDC009002A2E024FA6012146007240770F17F3C
:10AEEC000822E49002A2F07F0722E49002A2F07FF5
:02AEFC0006222C
:08B73600E49002A2F0D2E92226
:10B3B8009002A2E0FEE0702804F090029DEDF0A358
:10B3C800EBF0A3EAF0A3E9F0E49002A1F0907FA5E6
:10B3D800E04480F0EF25E0907FA6F012AEDCAE07E7
:02B3E800AF06AE
:01B3EA002240
:10B2E0009002A2E0FEE0702B7403F090029DEDF05E
:10B2F000A3EBF0A3EAF0A3E9F0E49002A1F0907FC1
:10B30000A5E04480F0EF25E04401907FA6F012AE66
:05B31000DCAE07AF06F2
:01B315002215
:03004B00029858C0
:10985800C0E0C083C082C085C084C086758600C051
:10986800D075D010907FA5E030E2109002A2740667
:10987800F0907FA5E04440F00299B19002A2E06424
:10988800026017907FA5E020E1109002A27407F013
:10989800907FA5E04440F00299B19002A2E024FE36
:1098A800700302992D14604524FE70030299A524C3
:1098B8000460030299B190029EE0FBA3E0FAA3E0E2
:1098C800F99002A1E0F58275830012854F907FA67A
:1098D800F09002A1E004F090029DE0FF9002A1E068
:1098E8006F60030299B1A37405F00299B1907FA645
:1098F800E0FF90029EE0FBA3E0FAA3E0F99002A14A
:10990800E0F582758300EF12858E9002A27402F052
:1099180090029DE0640160030299B1907FA5E04444
:1099280020F00299B190029DE024FEFF9002A1E090
:10993800B51707907FA5E04420F090029DE014FF42
:079948009002A1E06F7031F5
:10994F00A3F0C2AF907FA5E04440F0907FA6E090D7
:10995F0002E8F0D2AFE0FF90029EE0FBA3E0FAA393
:0F996F00E0F99002A1E0F582758300EF12858E7A
:10997E00801D907FA6E0FF90029EE0FBA3E0FAA37D
:10998E00E0F99002A1E0F582758300EF12858E90CA
:10999E0002A1E004F0800C907FA5E04440F090021C
:1099AE00A2E4F05391DFD0D0D086D084D085D0827F
:0599BE00D083D0E0326F
:109DA000900281EFF0900283EAF0A3EBF090028141
:109DB000E0C394045073ED6401706EE0FF75F047EA
:109DC000A42483F582E5F03400F583E4F075F047D0
:109DD000EFA42484F582E5F03400F583E4F075F017
:109DE00047EFA42485F582E5F03400F5837440F054
:109DF00075F047EFA42482F582E5F03400F5837412
:109E000001F075F047EFA42480F582E5F03400F509
:109E100083E4F0900286E0FE75F047EFA42481F51C
:109E200082E5F03400F583EEF0900281E014601CCE
:109E300014602B14602824037045900283E0FEA375
:109E4000E0FFA3E0FDA3E0FB12AB2822900283E039
:109E5000FEA3E0FFA3E0FDA3E0FB12A7D422900243
:109E600081E0FF900283E0FCA3E0FDA3E0FBA3E020
:109E70009002A7F0900287E09002A8F012A8DE22DC
:10AB28009002E0EEF0A3EFF0E4F598ED7010EBB4CE
:10AB38000206C29FD29E8006D29FD29EC29DD29C00
:10AB480075C834538EFD75CBFF9002E0E0FEA3E09C
:10AB58008EF01286CCAB892580AB844B00AB7F701E
:10AB680080AB7A9600AB75E1000000AB8E75CAF336
:10AB7800801775CAEC801275CAE5800D75CAD98030
:0CAB88000875CAB1800375CAECD2AC227B
:10A7D4009002E2EEF0A3EFF0E4F5C0ED7010EBB4FC
:10A7E4000206C2C7D2C68006D2C7D2C6C2C5D2C468
:10A7F400D2DF5389F0438920438E1043878090022F
:10A80400E2E0FEA3E08EF01286CCA84C0960A847D3
:10A8140012C0A8422580A83D4B00A8387080A833F8
:10A824009600A82EE1000000A851758DFA802175CC
:10A834008DF6801C758DF38017758DEC8012758DE7
:10A84400D9800D758DB28008758D648003758DEC8B
:05A85400D28ED2AE22FD
:030023000299C37C
:1099C300C0E0C0F0C083C082C085C084C0867586F5
:1099D30000C0D075D000C000C001C002C003C004E5
:0C99E300C005C006C007209803029AB718
:1099EF00D20F9002E9E599F0C298900081E0FF64F0
:1099FF0002601C9002E9E0A2D0920FEFB40102B214
:109A0F000FA20F309A01B34003D38001C3920F20EE
:109A1F000F03029AAE900082E0B40112E4F09002BC
:109A2F00E9E0907E00F0907FB97401F0807A9000A9
:109A3F0084E0FF700AA3E0FE900083E06E60149054
:109A4F000083E02401FDE433FC7E00EDB5070AEE50
:109A5F00B504067E007F0180047E007F00EF4E700C
:109A6F002C9002E9E0FF900083E0FE2486F582E46B
:109A7F003400F583EFF0900085E0FFEEB507047F2B
:109A8F00008003EE04FF900083EFF0801B7F057DC5
:109A9F0002E4FB12A5AA900083E4F0A3F080097FF3
:089AAF00057D03E4FB12A5AAEA
:109AB700309946907FC9E0FF900080E0FEC39F5039
:109AC70031A3E0FF6402601574C02EF582E4347D93
:109AD700F583E0A2D0929BEFB40102B29B74C02E33
:109AE700F582E4347DF583E0F599900080E004F099
:109AF7008005907FC9E4F0C299D007D006D005D081
:109B070004D003D002D001D000D0D0D086D084D0EA
:0A9B170085D082D083D0F0D0E03278
:03003B00029B2104
:109B2100C0E0C0F0C083C082C085C084C086758695
:109B310000C0D075D000C000C001C002C003C00485
:0C9B4100C005C006C00720C003029C1530
:109B4D00D2109002EAE5C1F0C2C09000C8E0FF64F7
:109B5D0002601C9002EAE0A2D09210EFB40102B2B2
:109B6D0010A21030C201B34003D38001C392102064
:109B7D001003029C0C9000C9E0B40112E4F09002B5
:109B8D00EAE0907D00F0907FBD7401F0807A900046
:109B9D00CBE0FF700AA3E0FE9000CAE06E60149067
:109BAD0000CAE02401FDE433FC7E00EDB5070AEEAA
:109BBD00B504067E007F0180047E007F00EF4E70AD
:109BCD002C9002EAE0FF9000CAE0FE24CDF582E47D
:109BDD003400F583EFF09000CCE0FFEEB507047F85
:109BED00008003EE04FF9000CAEFF0801B7F057D1F
:109BFD00027B0112A5AA9000CAE4F0A3F080097FB0
:089C0D00057D037B0112A5AAED
:109C150030C146907FCDE0FF9000C7E0FEC39F5066
:109C250031A3E0FF6402601574C02EF582E4347C34
:109C3500F583E0A2D092C3EFB40102B2C374C02E83
:109C4500F582E4347CF583E0F5C19000C7E004F0CB
:109C55008005907FCDE4F0C2C1D007D006D005D0F5
:109C650004D003D002D001D000D0D0D086D084D08B
:0A9C750085D082D083D0F0D0E03219
:10B0A000E4FFC211EFC39407504020113DEF75F04B
:10B0B00007A4240BF582E43402F583E0FCA3E0FD51
:10B0C000BCFF24BDFE21EF75F007A4240BF582E43C
:10B0D0003402F58374FFF0A3F0EF12857C90020830
:0CB0E000E004F0D21180BD0F80BAA21174
:01B0EC002241
:10B451009002EBEFF0AF05E0FD75F007A42409F5CC
:10B4610082E43402F583ECF0A3EFF0ED75F007A46C
:10B47100240DF582E43402F583EBF0A3EAF0A3E9AD
:02B48100F022B7
:01B7830022A3
:10B0ED00E4900208F0FFEF75F007A4240BF582E45D
:10B0FD003402F58374FFF0A314F0EF75F007A42468
:10B10D000DF582E43402F58374FFF0A374B7F0A358
:10B11D007483F00FEFB407CEC28C438901538EF7C1
:0CB12D00C28C758CF8758A30D28CD2A9C7
:01B1390022F3
:03000B00029F56FB
:109F5600C0E0C0F0C083C082C085C084C08675865C
:109F660000C0D075D000C000C001C002C003C0044C
:069F7600C005C006C00793
:109F7C009002ECE4F0900208E0FF9002ECE0FEC3EB
:109F8C009F506FEE75F007A4240BF582E43402F5B4
:109F9C0083E0FCA3E0FDD39400EC64809480401734
:109FAC00EE75F007A4240BF582E43402F58374FFFC
:109FBC00F5F01285B08033ED4C702F9002ECE0FF81
:109FCC0075F007A4240BF582E43402F58374FFF0DA
:109FDC00A3F0EF75F007A4240DF582E43402F583A9
:109FEC00E0A3E0FAA3E0F91286F99002ECE004F0A9
:0C9FFC008083C28C758CF8758A30D28C82
:10A00800D007D006D005D004D003D002D001D000AC
:10A01800D0D0D086D084D085D082D083D0F0D0E084
:01A028003205
:05A029009002B5EFF00C
:10A02E00E0B40204C2EC8002C2EAAE04AF05E4FC66
:10A03E00FDF8F9AA06AB07FF7E207D1C12B21B7835
:10A04E000412866F9002B61286839002B5E0F9B4C0
:10A05E00021675F008A4243EF582E43402F583E07E
:10A06E004480906003F08015E975F008A4243EF555
:10A07E0082E43402F583E04480904003F0E9B402B8
:10A08E000E9002B8E0FEA3E0EE906001F0800C901E
:10A09E0002B8E0FEA3E0EE904001F0E9B4020C90AD
:10A0AE0002B8E0A3E0906000F0800A9002B8E0A34E
:10A0BE00E0904000F0E9B4021475F008A4243EF5D7
:10A0CE0082E43402F583E0906003F08013E975F0CA
:10A0DE0008A4243EF582E43402F583E0904003F0B8
:09A0EE00E9B40203D2EC22D2EA2B
:01A0F7002246
:1094B8009002BDE030E113EF75F008A42443F58273
:1094C800E43402F5837401F08010EF75F008A424E9
:1094D80043F582E43402F583E4F0ED4BFEEF75F0DA
:1094E80008A4243EF582E43402F583EEF0EFB402DA
:1094F80007E0906003F08013EF75F008A4243EF5B0
:0B95080082E43402F583E0904003F0A1
:10951300EFB40207906000E0FE8005904000E0FE9B
:109523009002BEEEF0EFB40207906005E0FE800506
:05953300904005E0FE80
:10953800EE20E0D7EFB402089060027401F08006D4
:109548009040027401F0EF75F008A4243DF582E420
:109558003402F5837487F0EFB40207E0906002F0FC
:109568008013EF75F008A4243DF582E43402F583F6
:10957800E0904002F0EF75F008A4243CF582E43452
:1095880002F5837407F09002BDE030E025EF75F036
:1095980008A4243CF582E43402F583E04408F0EFA3
:1095A80075F008A42440F582E43402F5837401F0D0
:1095B8008021EF75F008A42440F582E43402F58395
:1095C800E4F0EF75F008A42441F582E43402F58351
:1095D8007401F0EF75F008A42442F582E43402F532
:1095E80083E4F0EF75F008A4243FF582E43402F533
:1095F800837408F0EFB40207E0906004F08013EF82
:1096080075F008A4243FF582E43402F583E0904025
:1096180004F0EFB4021475F008A4243CF582E43495
:1096280002F583E0906001F08013EF75F008A42440
:109638003CF582E43402F583E0904001F0EF75F0E8
:1096480008A42440F582E43402F583E0640170360E
:10965800EFB40207906006E0FE8005904006E0FE49
:10966800EE30E412EF75F008A42441F582E43402E8
:10967800F5837401F022EF75F008A42441F582E423
:069688003402F583E4F05A
:01968E0022B9
:0BA8DE009002A3EFF0A3ECF0A3EDF05C
:10A8E900E4FEFCAF0380007E039002A7E01460073A
:10A8F9000470087C1880067C088002E4FC9002A39E
:10A90900E0FFB40204C2EC8002C2EAEFB4020553CC
:10A91900D8F780035391BFEFB40207E4906001F0C8
:10A929008005E4904001F0AD06AB049002A8E090E8
:10A9390002BDF01294B89002A3E0FFA3E0FCA3E0EB
:10A94900FD12A0299002A3E0B40203D2EC22D2EABC
:01A9590022DB
:10B6D100EF75F008A42443F582E43402F583EDF01C
:01B6E1002246
:030063000288B25E
:1088B200C0E0C0F0C083C082C085C084C086758617
:1088C20000C0D075D000C000C001C002C003C00407
:0688D200C005C006C0074E
:1088D80090028AE4F0A3F0906002E0540F900288BE
:1088E800F0900288E0FF64017003028B3B90028ADB
:1088F800E0C3648094854003028B3BEF5406640612
:108908007036906005E0900289F0E0541C600C7F9E
:10891800057D037B0212A5AA028B11900289E02033
:10892800E103028B117F057D027B0212A5AA90014B
:1089380011E4F0A3F0028B11900288E0FF54046464
:0D89480004600AEF540C640C6003028AA95D
:1089550090028CE4F0A37440F0900110E064017083
:1089650052900253E0B4010F906004E04402F0908D
:108975000250E0900252F0900110E4F0906000E0A7
:10898500FF90028CE02400F582E4347CF583EFF05F
:1089950090028CE004F0906005E0900289F0E02000
:1089A500E0DA90028CE0FF7003028B11907FC1F03A
:0B89B500028B11900252E06401706917
:1089C000C2AF900112E0FF900111E0FEC39F40078B
:1089D000C3EE9FFDFF800CC3EF9EFF900113E004E8
:1089E000C39FFF90028EEFF0D2AFD39438502C90FB
:1089F0006000E0FF900111E0FE2414F582E43401F0
:108A0000F583EFF0900113E0FFEEB507047F0080DF
:108A100003EE04FF900111EFF0807D900252E4F02C
:078A2000906004E054FDF03A
:108A2700806F900112E0FF700AA3E0FE900111E051
:108A37006E6014900111E02401FDE433FC7E00ED2B
:108A4700B5070AEEB504067E007F0180047E007F2D
:108A570000EF4E702C906000E0FF900111E0FE24C3
:108A670014F582E43401F583EFF0900113E0FFEE93
:108A7700B507047F008003EE04FF900111EFF0803B
:108A8700107F057D027B0212A5AA900111E4F0A3D5
:108A9700F0906005E0900289F0E030E0030289B8C9
:108AA7008068900288E0540264027041900251E0AD
:108AB700640170567F10907FD1E0FE90010EE0FDBB
:108AC700C39E501774C02DF582E4347BF583E09084
:108AD7006000F090010EE004F08007907FD1E4F091
:0D8AE70080281FD3EF6480948050CB801D49
:108AF400906006E090028CF0E030E40C9002517437
:0D8B040001F090028BF08005900251E4F02A
:108B110090028BE0B40110E4F0906002E0540F4445
:108B210002900288F0800A906002E0540F9002885F
:0D8B3100F090028AE004F00288E953D8F7C2
:108B3E00D007D006D005D004D003D002D001D0008B
:108B4E00D0D0D086D084D085D082D083D0F0D0E063
:018B5E0032E4
:10A9D6004801AEFFFFFFFFFFFFFFFF602801E00118
:10A9E60021017E400101AE003C017E440101B2001E
:10A9F6003D017E450101B3003E017E460101B400E2
:10AA06003F017E470101B5602801B80120017E8023
:10AA1600017E800038017E88017E880039017E89AA
:10AA2600017E89003A017E8A017E8A003B017E8B87
:0FAA3600017E8B41019C0041019D0041019E006A
:10AABA00D200907FA17401F0907F937404F0907F8C
:10AACA0094740CF0907F957443F0E4907F96F09024
:10AADA007F97F0907F98F0907F9C74F1F0907F9D23
:10AAEA0074A3F0E4907F9EF0907FAD7456F0907F4F
:10AAFA00AC745EF0907FDF7457F0907FDE745FF085
:10AB0A00E4907FE0F0907FE1F0D2B9D2BAD2BBD222
:0EAB1A00BCD2BDD2BED2F8D2F9C2FAC2FC2221
:10AE340012B7027F027D017B007A4BE4900285F019
:10AE4400A37402F0A304F0129DA0E4FF7D01FB7A39
:10AE540096900285F0A3F0A3F0129DA07F017D01DE
:10AE64007B007A4BE4900285F0A37402F0E4A3F033
:10AE7400129DA012B0ED12B73612A27D907FAEE003
:04AE84004402F02272
:10A27D009001A8E054FEF054FDF0E4A3F0A3F0A388
:10A28D00F012B4DBE49001A3F0A3F07B017A017925
:10A29D00A212B0A07B017A0179A512B0A09001A500
:10A2AD00E0FF7D647C007BFF7AB7794E12B4517B61
:10A2BD00017A0179A612B0A09001A6E0FF7DF47C91
:10A2CD00017BFF7AB7795612B4517B017A0179A7D8
:10A2DD0012B0A09001A7E0FF7D027C007BFF7AB752
:10A2ED00791812B4517B017A0179A112B0A012B57F
:10A2FD00BD9001A1E0FF75F007A42409F582E5F0FA
:10A30D003402F583E0FCA3E0FD75F007EFA4240B08
:0EA31D00F582E5F03402F583ECF0A3EDF022BA
:08B73E009001A0E04402F0229A
:08B746009001A0E04404F02290
:10B483001285369001A9F090000112854F9001AA10
:10B49300F090000212854F9001ABF09001A0E044C0
:0DB4A30008F0907FB67401F0907FC6F02293
:0AB70E007F037D02E4FB12A5AA22CE
:08B74E009001A0E04410F0227C
:08B756009001A0E04420F02264
:0AB718007F037D03E4FB12A5AA22C3
:10ABFE009001A8E0FF1313543F5401FEBE011590BF
:10AC0E007F96E0F0907F97E04480F0EF54FB900148
:10AC1E00A8F08013907F96E0F0907F97E0547FF03D
:10AC2E00EF44049001A8F09001A1E0FF75F007A495
:10AC3E002409F582E5F03402F583E0FCA3E0FD750E
:10AC4E00F007EFA4240BF582E5F03402F583ECF067
:04AC5E00A3EDF02250
:07B766009001B77401F0220D
:108000009001A0E0FF131313541F54016401700387
:108010000285359002EDE0FF131313541F540164E1
:10802000017003028535907F9BE05408FF13131302
:10803000541FFFBF011B907F96E044F0F0907F97A4
:10804000E04403F0907F96E0F0907F97E054DFF0FB
:1080500022907E84E0C4540F54016401701B907F11
:1080600096E04460F0907F97E0F0907F96E0546F48
:10807000F0907F97E054DCF022907E82E0FEA3E057
:108080007802CEC313CE13D8F920E01D907F96E07E
:1080900044B0F0907F97E04421F0907F96E054BF89
:1080A000F0907F97E054FDF022907E84E0C413139B
:1080B00013540154016401701B907F96E044F0F06A
:1080C000907F97E04420F0907F96E0F0907F97E0DB
:1080D00054FCF022E4907E83E054016401701D9012
:1080E0007F96E04460F0907F97E04422F0907F9686
:1080F000E0546FF0907F97E054FEF022907E86E08F
:108100001313543F54016401701D907F96E044D0D6
:10811000F0907F97E04422F0907F96E054DFF0905B
:108120007F97E054FEF022907E82E0C313A3E01319
:1081300020E01B907F96E044D0F0907F97E04423AE
:10814000F0907F96E054DFF0907F97E0F022907EF1
:1081500082E0FEA3E07803CEC313CE13D8F9540116
:108160006401701B907F96E04470F0907F97E0F080
:10817000907F96E0547FF0907F97E054DCF022905F
:108180007E82E0FEA3E07805CEC313CE13D8F95467
:108190000164017019907F96E044F0F0907F97E0C1
:1081A0004423F0907F96E0F0907F97E0F022907E5D
:1081B00082E0C4F854F0C868A3E0C4540F4820E03B
:1081C0001B907F96E044F0F0907F97E04422F0907F
:1081D0007F96E0F0907F97E054FEF022907E82E060
:1081E000FEA3E07807CEC313CE13D8F9540164017F
:1081F000701B907F96E04470F0907F97E04423F0EE
:10820000907F96E0547FF0907F97E0F022907E82FE
:10821000E0FEA3E07806CEC313CE13D8F920E01B0E
:10822000907F96E044F0F0907F97E04421F0907FBB
:1082300096E0F0907F97E054FDF022907E82E0C3BC
:108240001354016401701B907F96E044C0F0907F4E
:1082500097E04423F0907F96E054CFF0907F97E032
:10826000F022907E82E020E01B907F96E044C0F0F8
:10827000907F97E04423F0907F96E054CFF0907F7A
:1082800097E0F022907E82E0131313541F54016490
:1082900001701D907F96E04480F0907F97E044212C
:1082A000F0907F96E0548FF0907F97E054FDF0229D
:1082B000907E82E01313543F20E01D907F96E044AF
:1082C000E0F0907F97E04421F0907F96E054EFF04B
:1082D000907F97E054FDF022907E86E0FEA3E07848
:1082E00007CEC313CE13D8F920E01B907F96E0444D
:1082F00090F0907F97E04423F0907F96E0549FF0B9
:10830000907F97E0F022907E86E0FEA3E07806CE94
:10831000C313CE13D8F920E01B907F96E044B0F051
:10832000907F97E04423F0907F96E054BFF0907FD9
:1083300097E0F022907E82E0C41354075401640158
:10834000701B907F96E04410F0907F97E04423F0FC
:10835000907F96E0541FF0907F97E0F022907E820D
:10836000E0C4540F20E01B907F96E04460F0907FC3
:1083700097E04423F0907F96E0546FF0907F97E071
:10838000F022907E84E01313543F5401640170275F
:10839000E0131313541F54016401701B907F96E087
:1083A0004440F0907F97E04423F0907F96E0544F54
:1083B000F0907F97E0F022907E86E0540164017097
:1083C0001B907F96E0F0907F97E04401F0907F96BD
:1083D000E0540FF0907F97E054DDF022907E86E02D
:1083E000C31354016401701D907F96E044E0F09047
:1083F0007F97E04401F0907F96E054EFF0907F97F4
:10840000E054DDF022907E82E0C413131354012067
:10841000E01D907F96E04480F0907F97E04403F069
:10842000907F96E0548FF0907F97E054DFF0229099
:108430007E82E0C41313540354016401701D907FC5
:1084400096E04440F0907F97E04421F0907F96E0E2
:10845000544FF0907F97E054FDF022907E84E0C46A
:108460001313540354016401701D907F96E044C0BF
:10847000F0907F97E04421F0907F96E054CFF09009
:108480007F97E054FDF022907E84E0C4135407549B
:10849000016401701B907F96E04430F0907F97E07C
:1084A0004423F0907F96E0543FF0907F97E0F022D5
:1084B000907E84E0C313A3E01320E01B907F96E03E
:1084C000F0907F97E04421F0907F96E0540FF09079
:1084D0007F97E054FDF022907E86E0131313541F23
:1084E000540164017019907F96E0F0907F97E0440A
:1084F00023F0907F96E0540FF0907F97E0F022E415
:10850000907E85E054016401701D907F96E044C028
:10851000F0907F97E04401F0907F96E054CFF09088
:108520007F97E054DDF022907F96E0540FF0907F2B
:0685300097E054DCF0228C
:10B4DB009002D47401F0A37401F0A374A0F0E4FF04
:10B4EB009002D4E0FBA3E0FAA3E0F98F827583000E
:09B4FB00E412858E0FEFB401E7A5
:01B504002224
:10A0F80012B4B07B017A0179AD12B0A09001ADE045
:10A10800FF7DD07C077BFF7AB7796612B451900146
:10A11800ADE0FF75F007A42409F582E5F03402F5F7
:10A1280083E0FCA3E0FD75F007EFA4240BF582E5BE
:10A13800F03402F583ECF0A3EDF012B77850031277
:10A14800B68812A6C29001A8E05401FFBF010C9086
:10A158007F96E04440F0907F97E0F012B778500384
:10A1680012B68812ACC59001A8E0FFC3135401FFD2
:10A17800BF010C907F96E04480F0907F97E0F0124A
:10A18800B6BC907E82E0FEA3E07802CEC313CE1365
:10A19800D8F9540164017003D38001C3921212B735
:10A1A80078400720120412B75E2212B778500320B5
:0BA1B80012097F047D03E4FB12A5AA3E
:01A1C3002279
:10B5BD00907FC67401F0E490019FF09001A1E0FF2F
:0EB5CD007DE87C037BFF7AAB79FE12B451223D
:10AE8800907FC67401F0FB7A0179AEFD12968F901F
:10AE9800019F7402F09001A1E0FF7DE87C037BFF35
:10AEA8007AAB79FE12B4519001A5E0FF75F007A4C2
:10AEB8002409F582E5F03402F583E0FCA3E0FD7592
:10AEC800F007EFA4240BF582E5F03402F583ECF0EB
:04AED800A3EDF022D4
:10B3160012B775907FC67401F012B64F9001A1E086
:10B3260075F007A4240BF582E5F03402F58374FF6B
:10B33600F0A3F0907F96E0F0907F97E04480F09045
:06B34600019F7404F022D7
:10AF5800907F9BE05408FF131313541F7031900126
:10AF68009F04F09001A6E0FF75F007A42409F5827C
:10AF7800E5F03402F583E0FCA3E0FD75F007EFA4EB
:10AF8800240BF582E5F03402F583ECF0A3EDF090A4
:10AF980002EEE0FF131313541F5401FFBF01031205
:03AFA800B31622BB
:10AB94009002EFE0FFC4135407540164017047901E
:10ABA400019F7402F012A0F89001A5E0FF75F00770
:10ABB400A42409F582E5F03402F583E0FCA3E0FD6A
:10ABC40075F007EFA4240BF582E5F03402F583EC6D
:10ABD400F0A3EDF09001A1E0FF7DE87C037BFF7A18
:10ABE400AB79FE12B4519002EFE0FF131313541F1C
:0AABF4005401FFBF010312B3162243
:10B2A000907E84E0C41313540354016401700FE0D2
:10B2B000C41354075401640170047D018002E4FD4D
:10B2C0009002F0E0FFC4540F5401FFBF010790014A
:0FB2D000A0E04410F0BF0106ED7003D38001C36E
:01B2DF00224C
:109E800078F07C027D017B017A0279F17E007F010E
:109E90001287BB12B2A092139002F1E0FF131313CA
:109EA000541F5401FFBF010412B316229002F1E0C7
:109EB0005401FFBF011B9001A2E075F007A4240B21
:109EC000F582E5F03402F58374FFF0A3F012B5BD1E
:109ED0002230130D12B3167F047D02E4FB12A5AAF3
:109EE000229002F1E0FFC313540164017067EF1385
:109EF00013543F20E05FE4907FC6F0907FD704F0DA
:109F0000E04420F0907FC6E0540264026003E4A3C2
:109F1000F09001A2E0FF75F007A42409F582E5F0B6
:109F20003402F583E0FCA3E0FD75F007EFA4240BF9
:109F3000F582E5F03402F583ECF0A3EDF090019F9B
:109F40007403F09001A1E0FF7D647C007BFF7AAB9D
:059F500079FE12B4517E
:019F550022E9
:10B34C0078F27C027D017B017A0279F27E007F012A
:10B35C001287BB907F9BE05408FF131313541F708C
:10B36C001490019CE0700E7F047D04FB12A5AA9042
:05B37C00019C7401F0CA
:01B3810022A9
:10AC62009002F3E0FF131313541F5401FFBF0104BA
:10AC720012B316229002F3E05401FFBF011B9001B0
:10AC8200A2E075F007A4240BF582E5F03402F58307
:10AC920074FFF0A3F012B5BD229002F3E0FF13138C
:10ACA200543F5401FFBF011A9001A2E075F007A4BE
:10ACB200240BF582E5F03402F58374FFF0A3F01261
:03ACC200AE882237
:109C7F00C2AF78F47C027D017B017A0179A07E006E
:109C8F007F011287BB12B4DBD2AF90019FE014604B
:109C9F003F14606B147003029D4A24036003029DFE
:109CAF008678ED7C027D017B017A0279F47E007F5C
:109CBF00011287BB12800078EE7C027D017B017A56
:109CCF000279F47E007F011287BB12AF58029D9C70
:109CDF0078ED7C027D017B017A0279F47E007F01B1
:109CEF001287BB12800078EF7C027D017B017A0224
:109CFF0079F47E007F011287BB12AB94029D9C12F8
:109D0F008DE37B017A0179AE7D0112968F78ED7C20
:109D1F00027D017B017A0279F47E007F011287BBFD
:109D2F0012800078F17C027D017B017A0279F47E4A
:109D3F00007F011287BB129E808052128DE37B0140
:109D4F007A7E7940E4FD12968F78ED7C027D017B5F
:109D5F00017A0279F47E007F011287BB12800078AE
:109D6F00F37C027D017B017A0279F47E007F011280
:109D7F0087BB12AC62801678F27C027D017B017A80
:109D8F000279F47E007F011287BB12B34C12B688A2
:019D9F0022A1
:05B051009002F5EDF096
:10B05600C2089001A0E05401FEBE0104D208803768
:10B06600EF24F96007147023D208802B30070E7F77
:10B07600027D039002F5E0FB12A5AA801A7F027DED
:10B08600049002F5E0FB12A5AA800C7F027D0290D7
:09B0960002F5E0FB12A5AAA208D4
:01B09F00228E
:05B5DB009002F6EFF004
:10B5E000D214E0FF7D0112B2E09002F6E0FDD20736
:07B5F00012B0519214A214E5
:01B5F7002231
:05B5F8009002F7EFF0E6
:10B5FD00D215E0FF7D0212B2E09002F7E0FDD20716
:07B60D0012B0519215A215C5
:01B614002213
:05B615009002F8EFF0C7
:10B61A00D216E0FF7D0112B3B89002F8E0FDC2072E
:07B62A0012B0519216A216A6
:01B6310022F6
:05B632009002F9EFF0A9
:10B63700D217E0FF7D0212B3B89002F9E0FDC2070E
:07B6470012B0519217A21787
:01B64E0022D9
:10A6C200E49002E5F09001A8E054FEF0D209D20A2B
:10A6D2009002E47438F0300A249002E4E0FFD3944C
:10A6E2003B501A7D017B017A0279E512B2E0EF64F8
:10A6F200086002C20A9002E4E004F080D99002E409
:10A70200743CF03009289002E4E0FFD3943F501EDD
:10A71200A374FFF07D017B017A0279E512B3B8EFF1
:10A7220064086002C2099002E4E004F080D53009B6
:10A732000B300A089001A8E04401F022E4FF7F04F4
:09A74200907E8874FFF0A3DFFC97
:01A74B0022EB
:10ACC500E49002D8F0A3F09001A8E054FDF0D20B77
:10ACD500D20C9002D77420F0FF7D027B017A0279B5
:10ACE500D812B2E0EF64086002C20C9002D774215A
:10ACF500F074FFA3F0A3F07F217D027B017A027936
:10AD0500D812B3B8EF64086002C20B300B0B300CDD
:10AD1500089001A8E04402F02274FF907E80F0A321
:01AD2500F03D
:01AD2600220A
:10B4B0009002DB74ACF0A3E4F07F487B017A027960
:10B4C000DB12B63292183018119002DA7451F07F04
:0AB4D000487B017A0279DA12B61502
:01B4DA00224F
:05968F0090028FEDF0D8
:10969400900002128607FF900294E5F0F0A3EFF029
:1096A400900294E0F0A374FFF07F247B017A0279A6
:1096B4009412B632921920190302985790019DE032
:1096C40075F008A424E0F582E43401F583E0640134
:1096D40060030297DA9001A8E0FFC3135401640108
:1096E400706790019DE0FF75F008A424E2F582E420
:1096F4003401F583C083C08290028FE0D082D0838E
:1097040075F0031286C0E0FBA3E0FAA3E0F912852A
:10971400DCFD900290E5F0F0A3EDF0EF75F008A405
:1097240024E1F582E43401F583E0FF7B017A0279D8
:109734009012B632921920190302985790019DE0B5
:109744000475F00584E5F0F02290019DE00475F0C5
:109754000584E5F0F09001A8E05401640170719073
:109764000292F090019DE0FF75F008A424E2F582D6
:10977400E43401F583C083C08290028FE0D082D0AC
:109784008375F0031286C0E0FBA3E0FAA3E0F912AC
:109794008536900293F0EF75F008A424E1F582E495
:1097A4003401F583E0FF7B017A02799312B61592B6
:1097B4001920190302985790019DE00475F005845F
:1097C400E5F0F0900292E004F0E0C39402409422A9
:1097D400E490019DF0229001A8E054016401706EB0
:1097E400900292F090019DE0FF75F008A424E2F548
:1097F40082E43401F583C083C08290028FE0D0827A
:10980400D08375F0031286C0E0FBA3E0FAA3E0F96D
:10981400128536900293F0EF75F008A424E1F582E6
:10982400E43401F583E0FF7B017A02799312B615E3
:10983400921930191E90019DE00475F00584E5F03D
:10984400F0900292E004F0E0C39402409722E49086
:03985400019DF083
:0198570022EE
:108DE3007F227B017A0279AC12B5F8921A201A031A
:108DF3000290519002ACE0FFA3E0907E82CFF0A3FB
:108E0300EFF07F237B017A0279AC12B5F8921A2036
:108E13001A030290519002ACE0FFA3E0907E84CF4E
:108E2300F0A3EFF07F247B017A0279AC12B5F892BC
:108E33001A201A030290519002ACE0FFA3E0907E47
:108E430086CFF0A3EFF09001B7E064016003028ED8
:018E5300E836
:108E54009002AB74AAF07F487B017A0279AB12B618
:108E640015921A201A030290517F487B017A0279E5
:108E7400AC12B5F8921A9002ACE0FFA3E0FEEF6EDC
:108E8400FF9002ACF0A3E06FFFF09002ACE06FF053
:108E9400E0FFA3E0907D80CFF0A3EFF09002ADE07F
:108EA400A3F0D3648094C1400A7F047D05E4FB12DF
:108EB400A5AA22E49001B7F09001ADE0FF75F00798
:108EC400A42409F582E5F03402F583E0FCA3E0FD77
:108ED40075F007EFA4240BF582E5F03402F583EC7A
:048EE400F0A3EDF01A
:108EE80090019EE0FF75F008A424B8F582E43401EF
:108EF800F583E064016003028FE29001A8E0FEC3FD
:108F080013540164017054EF75F008A424B9F58274
:108F1800E43401F583E0FF7B017A0279AC12B5F8FD
:108F2800921A201A030290519002ACE0F9A3E0FFD4
:108F380090019EE075F008A424BAF582E43401F5A6
:108F480083E0FBA3E0FAA3E0C98FF012863F90010B
:108F58009EE00475F00584E5F0F02290019EE0049F
:108F680075F00584E5F0F09001A8E0540164017003
:108F7800639002A9F090019EE075F008A424B9F569
:108F880082E43401F583E0FF7B017A0279AA12B505
:108F9800DB921A201A030290519002AAE0FF900176
:108FA8009EE075F008A424BAF582E43401F583E064
:108FB800FBA3E0FAA3E0F9EF12857C90019EE004A0
:108FC80075F00584E5F0F09002A9E004F0E0C394A0
:108FD8000240A222E490019EF0229001A8E05401F0
:108FE800640170609002A9F090019EE075F008A4F9
:108FF80024B9F582E43401F583E0FF7B017A027934
:10900800AA12B5DB921A301A409002AAE0FF90012A
:109018009EE075F008A424BAF582E43401F583E0F3
:10902800FBA3E0FAA3E0F9EF12857C90019EE0042F
:1090380075F00584E5F0F09002A9E004F0E0C3942F
:099048000240A522E490019EF013
:0190510022FC
:10B6BC00E49002FAF0128DE39002FAE004F0E0C399
:04B6CC00940540F1B0
:01B6D0002257
:10B64F00E49002FBF07B017A0179AE7D0112968FB7
:0CB65F009002FBE004F0E0C3940540E919
:01B66B0022BC
:10B59E00E49002FCF07B017A7F790012AA4C5006EF
:0EB5AE009002FC7403F09002FCE0907FB5F078
:01B5BC00226C
:10B13A007B017A7F79009001A8E0540112857C9006
:10B14A0001A8E0FFC313540190000112858E9001FB
:10B15A00A9E090000212858E9001AAE090000312E5
:10B16A00858E9001ABE090000412858E90019FE0DD
:0CB17A0090000512858E907FB57406F0E1
:01B1860022A6
:04B1D200AB07AA0617
:10B1D600E4FCEAFFAE040CEE24DDF582E43402F56D
:10B1E60083EFF0EB0E0C74DD2EF582E43402F5836A
:10B1F600EBF00E0C74DD2EF582E43402F583EDF0EF
:10B206007F51AD047B017A0279DD12B3B87F0A7EE5
:04B216000012B66C00
:01B21A002211
:10B187009002AFEEF0A3EFF0A3EDF0A3EAF0A3EB8C
:01B19700F0C7
:10B19800E4A3F09002B1E0FF9002B4E0FDC39F5039
:10B1A800289002AFE475F0011285C6AFF0FE900258
:10B1B800B2E0FAA3E02DF582E43AF583E0FD12B19E
:09B1C800D29002B4E004F080CA48
:01B1D100225B
:10AD2700900271EEF0A3EFF0A3EDF0A3EAF0A3EB2E
:01AD3700F02B
:10AD3800E4FDA3F0900271E0FFAE050DEE2477F577
:10AD480082E43402F583EFF0900272E0FF0E0D7496
:10AD5800772EF582E43402F583EFF07F517B017A98
:10AD680002797712B3B87F51900273E0FDA3E0FA3D
:08AD7800A3E0F97B0112B2E037
:01AD800022B0
:1092A400907FEAE0FF900279E4F0A3EFF0907FEB87
:1092B400E0FE900279E04EF0A3E0F0907FEEE0FF54
:1092C40090027BE4F0A3EFF0907FEFE0FE90027B4E
:1092D400E04EF0A3E0F0907FE8E064C06003029306
:1092E400F290027BE0FEA3E0FF4E70030294B7C34A
:1092F400EF9440EE94005008A3EEF0A3EFF0800941
:1093040090027DE4F0A37440F0907FE9E064B770CC
:109314005190027FF0A3F090027DE0FEA3E0FFA352
:10932400E0FCA3E0FDC39FEC9E40030293BD9002CA
:1093340079E0FEA3E0F5828E832DF582EC3583F58A
:1093440083E0FF900280E02400F582E4347FF5831B
:10935400EFF0900280E004F0700690027FE004F0E9
:1093640080B5907FE9E064B8704F90027FF0A3F07D
:1093740090027DE0FEA3E0FFC3900280E09F900294
:109384007FE09E501EA3E02400F582E4347FF58341
:1093940074CDF0900280E004F0700690027FE00447
:1093A400F080CD900279E0FEA3E0FF90027EE0FD24
:1093B4007A7F79007B0012AD2790027EE0907FB522
:1093C400F090027DE0FEA3E0FF90027AE02FF0909F
:1093D4000279E03EF0C390027CE09FF090027BE0D3
:1093E4009EF0907FB4E020E2030292E580F4907F47
:1093F400E8E0644060030294B790027BE07002A34B
:10940400E070030294B7E4907FC5F0907FB4E0204D
:10941400E3F9907FC5E0FF90027DE4F0A3EFF090C4
:109424007FE9E064B7704B90027FF0A3F090027D77
:10943400E0FEA3E0FFA3E0FCA3E0FDC39FEC9E508D
:109444004EE024C0F582E4347EF583E0FF90027997
:10945400E0FAA3E0F5828A832DF582EC3583F58367
:10946400EFF0900280E004F0700690027FE004F0D8
:1094740080BB907FE9E0B4B816900279E0FEA3E0E7
:10948400FF90027EE0FD7A7E79C07BC012B18790A6
:10949400027DE0FEA3E0FF90027AE02FF0900279D3
:1094A400E03EF0C390027CE09FF090027BE09EF0EF
:0394B4000293FD23
:0194B7002292
:04B77100129C7F2285
:02AEFE00D3225D
:01B7840022A2
:02B77B00D322D7
:0AB72200907FEAE09001B6F0D32218
:10B6E2009001B6E0907F00F0907FB57401F0D32214
:0AB72C00907FEAE09001ACF0D32218
:10B6F2009001ACE0907F00F0907FB57401F0D3220E
:02B77D00D322D5
:02B77F00D322D3
:02B78100D322D1
:10A50E00C21B907FE9E0244F605B14606B147003F4
:10A51E0002A59614700302A59B24FE60501460726F
:10A52E0014606F24087070E49001A3F0A3F0907F84
:10A53E00EAE0FF9001A3E4F0A3EFF0907FEBE0FEE2
:10A54E009001A3E04EF0A3E0F09001A2E0FFA3E0A3
:10A55E00FCA3E0FD7BFF7AB7790E12B45112B73E21
:10A56E00129C7F803412B746129C7F802C7F037D15
:10A57E0004E4FB12A5AA8021907F96E0540FF09080
:10A58E007F97E054DCF0801112B59E800C12B13A28
:0BA59E0080071292A48002D21BA21BB7
:01A5A900228F
:10B52F00C0E0C083C082C085C084C086758600D24B
:10B53F00015391EF907FAB7401F0D086D084D0850A
:07B54F00D082D083D0E0326E
:10B50500C0E0C083C082C085C084C08675860090B7
:10B515007FC4E4F05391EF907FAB7404F0D086D0F4
:0AB5250084D085D082D083D0E032BC
:10A74C00C0E0C0F0C083C082C085C084C08675865E
:10A75C0000C0D075D000C004C005C00790019FE0B8
:10A76C00B4032E9001A7E0FF75F007A42409F5822D
:10A77C00E5F03402F583E0FCA3E0FD75F007EFA4EF
:10A78C00240BF582E5F03402F583ECF0A3EDF080B8
:10A79C00179001A7E075F007A4240BF582E5F034BF
:10A7AC0002F58374FFF0A3F05391EF907FAB74022A
:10A7BC00F0D007D005D004D0D0D086D084D085D0AE
:08A7CC0082D083D0F0D0E0320E
:10B25F00C0E0C083C082C085C084C0867586009060
:10B26F007FB6E0540264026004A3740CF0907FBABE
:10B27F00E0540264026004A37402F05391EF907FD4
:10B28F00AB7410F0D086D084D085D082D083D0E03C
:01B29F00327C
:01B785003291
:10B55600C0E0C083C082C085C084C086758600D224
:10B56600025391EF907FAB7408F0D086D084D085DB
:07B57600D082D083D0E03247
:10B3EB00C0E0C083C082C085C084C08675860090D3
:10B3FB007FB6E0540264026004A3740CF05391EF27
:10B40B00907FA97402F0D086D084D085D082D0836F
:03B41B00D0E0324C
:10A95A00C0E0C0F0C083C082C085C084C08675864E
:10A96A0000C0D075D000C004C005C0079001A2E0A5
:10A97A00FF75F007A42409F582E5F03402F583E0B7
:10A98A00FCA3E0FD75F007EFA4240BF582E5F03493
:10A99A0002F583ECF0A3EDF090019FE0B4030D9073
:10A9AA007FC6E0540264026003A3E4F05391EF907F
:10A9BA007FAA7402F0D007D005D004D0D0D086D0B8
:0CA9CA0084D085D082D083D0F0D0E03261
:10A32B00C0E0C083C082C085C084C086758600C073
:0AA33B00D075D000C005C006C007B1
:10A345009002FDE4F0900083E0FFA3E0FEB5070472
:10A355007F0180027F00EF703D9002FDE0FFC39416
:10A3650040503374862EF582E43400F583E0FD74A5
:10A37500002FF582E4347EF583EDF0900085E0B59D
:10A3850006047F008003EE04FF900084EFF0900246
:10A39500FDE004F080AF9002FDE0FF6006907FB91C
:10A3A500F080069000827401F05391EF907FA974BC
:02A3B50004F0B2
:10A3B700D007D006D005D0D0D086D084D085D08223
:05A3C700D083D0E0325C
:10AFAB00C0E0C083C082C085C084C086758600C0E7
:10AFBB00D075D000C007900081E0FF6402600E9056
:10AFCB007DC0E0A2D0929BEFB40102B29B907DC0FA
:10AFDB00E0F5999000807401F05391EF907FAA7483
:10AFEB0004F0D007D0D0D086D084D085D082D08347
:03AFFB00D0E03271
:10B41E00C0E0C083C082C085C084C086758600909F
:10B42E007FBAE0540264026004A37402F05391EFF9
:10B43E00907FA97408F0D086D084D085D082D08336
:03B44E00D0E03219
:10A3CC00C0E0C083C082C085C084C086758600C0D2
:0AA3DC00D075D000C005C006C00710
:10A3E6009002FEE4F09000CAE0FFA3E0FEB5070489
:10A3F6007F0180027F00EF703D9002FEE0FFC39474
:10A4060040503374CD2EF582E43400F583E0FD74BC
:10A41600002FF582E4347DF583EDF09000CCE0B5B5
:10A4260006047F008003EE04FF9000CBEFF090025D
:10A43600FEE004F080AF9002FEE0FF6006907FBD74
:10A44600F080069000C97401F05391EF907FA974D3
:02A4560010F004
:10A45800D007D006D005D0D0D086D084D085D08281
:05A46800D083D0E032BA
:10AFFE00C0E0C083C082C085C084C086758600C094
:10B00E00D075D000C0079000C8E0FF6402600E90BB
:10B01E007CC0E0A2D092C3EFB40102B2C3907CC058
:10B02E00E0F5C19000C77401F05391EF907FAA74C0
:10B03E0010F0D007D0D0D086D084D085D082D083E7
:03B04E00D0E0321D
:10A46D00C0E0C083C082C085C084C086758600C030
:0AA47D00D075D000C005C006C0076E
:10A487009002FFE4F0900111E0FFA3E0FEB507049E
:10A497007F0180027F00EF703D9002FFE0FFC394D1
:10A4A70040503374142EF582E43401F583E0FD74D3
:10A4B700002FF582E4347CF583EDF0900113E0B5CD
:10A4C70006047F008003EE04FF900112EFF0900274
:10A4D700FFE004F080AF9002FFE0FF6006907FC1CD
:10A4E700F080069001107401F05391EF907FA974EA
:02A4F70040F033
:10A4F900D007D006D005D0D0D086D084D085D082E0
:05A50900D083D0E03218
:10AD8100C0E0C083C082C085C084C086758600C013
:10AD9100D075D000C00790010FE0FF6402601390EE
:10ADA1007BC0E0A2D0E43390023AF0EFB40103E0BB
:10ADB100F4F0907BC0E0906000F090010E7401F01F
:10ADC1005391EF907FAA7440F0D007D0D0D086D0B5
:0AADD10084D085D082D083D0E03218
:01B786003290
:01B78700328F
:01B78800328E
:01B78900328D
:01B78A00328C
:01B78B00328B
:01B78C00328A
:06AA4500C106C104C105B9
:08B75E00200504D204D20522EB
:03B77500C20422E9
:03B77800A2042206
:10B6880030041630060AC206907F96E04401F02284
:0AB69800D206907F96E054FEF022E7
:10B6A200907FD6E030E712E04401F07F147E001272
:0AB6B200B66C907FD6E054FEF02243
:10B57D00907FD6E04480F043870100000000002258
:10B38200907FD6E054FBF0E04408F0301C04E04427
:10B3920002F07FDC7E0512B66C907FAB74FFF090FA
:10B3A2007FA9F0907FAAF05391EF907FD6E054F7F7
:06B3B200F0E04404F0226B
:10B66C009002E6EEF0A3EFF09002E674FFF5F01214
:0CB67C0085C645F0600512B58D80ED22FA
:10ADDB009002BFEFF0E4A3F0A374FFF0A37412F0A2
:10ADEB00A37454F09002C1E0FBA3E0FAA3E0F99046
:10ADFB00000112854F640370299002BFE0FFA3E0AE
:10AE0B00FE04F0EEB50701221285367E0029FFEE17
:10AE1B003AFAA9079002C174FFF0A3EAF0A3E9F094
:09AE2B0080C27B007A007900224C
:10A85900900296EFF0E4A3F090029A74FFF0A374CB
:10A8690011F0A374E0F090029AE0FBA3E0FAA3E0F0
:10A87900F990000112854F64027053900296E0FF2F
:10A88900A3E0FE04F0EEB50701229000021286074C
:10A89900FF900298E5F0F0A3EFF0900298E0FFA393
:10A8A900E0FEEF6EFF900298F0A3E06FFFF09002D8
:10A8B90098E06FF0A3E029FF900298E03AFAA9071F
:10A8C90090029A74FFF0A3EAF0A3E9F080987B0064
:05A8D9007A0079002265
:10B58D007400F58690FDA57C05A3E582458370F9D1
:01B59D00228B
:0300430002AF0009
:10AF000002B52F0002A74C0002B5050002B556009D
:10AF100002B25F0002B7850002B7860002B7870061
:10AF200002B3EB0002A95A0002A32B0002AFAB0050
:10AF300002B41E0002B7880002A3CC0002AFFE00DC
:10AF400002B7890002B78A0002A46D0002AD810039
:08AF500002B78C0002B78B0070
:0300000002A6361F
:0CA63600787FE4F6D8FD75812302A67D34
:10853600BB010689828A83E0225002E722BBFE0243
:09854600E32289828A83E4932276
:10854F00BB010CE58229F582E5833AF583E02250E1
:10855F0006E92582F8E622BBFE06E92582F8E2222B
:0D856F00E58229F582E5833AF583E4932245
:10857C00BB010689828A83F0225002F722BBFE01DE
:02858C00F322D8
:10858E00F8BB010DE58229F582E5833AF583E8F023
:10859E00225006E92582C8F622BBFE05E92582C8CF
:0285AE00F222B7
:1085B000C5F0F8A3E028F0C5F0F8E5821582700256
:0685C0001583E038F022F3
:1085C600A3F8E0C5F025F0F0E58215827002158368
:0685D600E0C838F0E822C5
:1085DC00BB010A89828A83E0F5F0A3E0225006876A
:1085EC00F009E71922BBFE07E3F5F009E31922892C
:0B85FC00828A83E493F5F0740193225F
:10860700BB0110E58229F582E5833AF583E0F5F0B1
:10861700A3E0225009E92582F886F008E622BBFE8E
:108627000AE92582F8E2F5F008E222E5832AF583D4
:08863700E993F5F0A3E9932299
:10863F00BB010A89828A83F0E5F0A3F0225006F786
:0F864F0009A7F01922BBFE06F3E5F009F3192283
:10B21B00C2D5E830E70FB2D5E4C39BFBE49AFAE45E
:10B22B0099F9E498F8EC30E717B2D512B2511288BD
:10B23B0020E4C39BFBE49AFAE499F9E498F88003C1
:10B24B0012882030D50DE4C39FFFE49EFEE49DFDE4
:04B25B00E49CFC2251
:10865E00EB9FF5F0EA9E42F0E99D42F0E89C45F072
:01866E0022E9
:10866F00E86010ECA2E713FCED13FDEE13FEEF1321
:04867F00FFD8F0220E
:0C868300ECF0A3EDF0A3EEF0A3EFF0226A
:10868F00A8828583F0D083D0821286A61286A61286
:10869F0086A61286A6E473E493A3C583C5F0C583AB
:1086AF00C8C582C8F0A3C583C5F0C583C8C582C835
:0186BF002298
:0C86C000A42582F582E5F03583F58322C5
:1086CC00D083D082F8E4937012740193700DA3A33D
:1086DC0093F8740193F5828883E473740293B5F074
:0D86EC00067403936860E9A3A3A3A380D8DC
:0686F9008A838982E4730C
:1086FF00E709F608DFFA8046E709F208DFFA803E5D
:10870F0088828C83E709F0A3DFFA8032E309F60849
:10871F00DFFA806EE309F208DFFA806688828C83C5
:10872F00E309F0A3DFFA805A89828A83E0A3F6086F
:10873F00DFFA804E89828A83E0A3F208DFFA804253
:10874F0080D280FA80C680D4805580F28029801034
:10875F0080A680EA809A80A880DA80E280CA802989
:10876F0088848C8589828A83E493A30586F0A30588
:10877F0086DFF5DEF3800B89828A83E493A3F60804
:10878F00DFF9ECFAA9F0EDFB2288848C8589828AC7
:10879F0083E0A30586F0A30586DFF6DEF480E38988
:1087AF00828A83E493A3F208DFF980D688F0ED2460
:1087BF0002B4040050CCF582EB2402B4040050C282
:1087CF0023234582F582EF4E60B8EF60010EE582FC
:0587DF002390874F7399
:10A6420002A1C4E493A3F8E493A34003F68001F2C9
:10A6520008DFF48029E493A3F85407240CC8C33319
:10A66200C4540F4420C8834004F456800146F6DFE8
:10A67200E4800B010204081020408090A9D6E47EF9
:10A68200019360BCA3FF543F30E509541FFEE493DD
:10A69200A360010ECF54C025E060A840B8E493A3A4
:10A6A200FAE493A3F8E493A3C8C582C8CAC583CACF
:10A6B200F0A3C8C582C8CAC583CADFE9DEE780BE87
:01AA4B00000A
:1087E40075F008758200EF2FFFEE33FECD33CDCC4C
:1087F40033CCC58233C5829BED9AEC99E5829840CF
:108804000CF582EE9BFEED9AFDEC99FC0FD5F0D6AB
:10881400E4CEFBE4CDFAE4CCF9A88222B800C1B9D5
:108824000059BA002DEC8BF084CFCECDFCE5F0CB13
:10883400F97818EF2FFFEE33FEED33FDEC33FCEB4C
:1088440033FB10D703994004EB99FB0FD8E5E4F907
:10885400FA227818EF2FFFEE33FEED33FDEC33FCF4
:10886400C933C910D7059BE99A4007EC9BFCE99AE8
:10887400F90FD8E0E4C9FAE4CCFB2275F010EF2F2D
:10888400FFEE33FEED33FDCC33CCC833C810D7072D
:108894009BEC9AE899400AED9BFDEC9AFCE899F868
:0E88A4000FD5F0DAE4CDFBE4CCFAE4C8F922FB
:00000001FF
