:1011CE00120100010000004054534E49020001027A
:1011DE00020109027400010103A000090400000EBF
:1011EE00FF0000040705010340000107050202404D
:1011FE00000007050302400000070504024000003E
:10120E00070505024000000705060240000007051D
:10121E000702400000070581034000010705820216
:10122E0040000007058302400000070584024000CD
:10123E0000070585024000000705860240000007F2
:10124E00058702400000040309041A0353005400EA
:10125E004100550042004C0049002D00550053003E
:10126E0042004900140349004E005400450052004C
:0A127E004600410043004500000057
:1087D0009002A2EBF0A3EAF0A3E9F09002A2E0FB82
:1087E000A3E0FAA3E0F912853624FE70030288C1E3
:1087F00014700302895724FE70030289D7046003B2
:10880000028A1990000112854F24FD602B14700319
:10881000028A5314604D24037074907F96E044D014
:10882000F0907F97E04423F0907F96E054DFF09043
:108830007F97E0F012AEAB22907F96E04460F0901C
:108840007F97E04422F0907F96E0546FF0907F97FE
:10885000E054FEF09002A2E0FBA3E0FAA3E0F912DC
:10886000AEAB22907F96E044D0F0907F97E0442218
:10887000F0907F96E054DFF0907F97E054FEF09008
:1088800002A2E0FBA3E0FAA3E0F912AEAB22900251
:10889000A2E0FBA3E0FAA3E0F990000174011285C5
:1088A0008E907F96E044B0F0907F97E04421F09066
:1088B0007F96E054BFF0907F97E054FDF012AEAB8E
:1088C000229002A2E0FBA3E0FAA3E0F990000112DB
:1088D000854F24FE602524FE6003047047907F9638
:1088E000E044F0F0907F97E04403F0907F96E0F052
:1088F000907F97E054DFF012AEAB22907F96E04479
:10890000F0F0907F97E04420F0907F96E0F0907F29
:1089100097E054FCF09002A2E0FBA3E0FAA3E0F998
:1089200012AEAB229002A2E0FBA3E0FAA3E0F99022
:108930000001740112858E907F96E044B0F0907F24
:1089400097E04421F0907F96E054BFF0907F97E04D
:1089500054FDF012AEAB229002A2E0FBA3E0FAA31A
:10896000E0F990000112854F24FD600B14600C2487
:1089700002703112B1E52212B1E522907F96E044F7
:1089800070F0907F97E0F0907F96E0547FF0907FBA
:1089900097E054DCF09002A2E0FBA3E0FAA3E0F938
:1089A00012AEAB229002A2E0FBA3E0FAA3E0F990A2
:1089B0000001740112858E907F96E044B0F0907FA4
:1089C00097E04421F0907F96E054BFF0907F97E0CD
:1089D00054FDF012AEAB229002A2E0FBA3E0FAA39A
:1089E000E0F990000112854F24FE606714606480F6
:1089F00000900001740112858E907F96E044B0F0E3
:108A0000907F97E04421F0907F96E054BFF0907FF4
:108A100097E054FDF012AEAB229002A2E0FBA3E07F
:108A2000FAA3E0F9740112857C907F96E044B0F0DF
:108A3000907F97E04421F0907F96E054BFF0907FC4
:108A400097E054FDF09002A2E0FBA3E0FAA3E0F966
:048A500012AEAB2295
:0CB1A100E490023AF0A3F0A37405F02241
:10A0C6009002A5EFF0A3EDF0A3EBF07B017A027905
:10A0D600A51287D090023BE0FF700AA3E0FE900233
:10A0E6003AE06E601490023AE02401FDE433FC7E0F
:10A0F60000EDB5070AEEB504067E007F0180047EFA
:10A10600007F00EF64014E7004C20D803C90023A5D
:10A11600E075F003A4243DF9740235F0A801FC7D36
:10A12600017B017A0279A57E007F031287A7900240
:10A136003CE0FF90023AE0FEB507047F008003EEA4
:0BA1460004FF90023AEFF0D20DA20DD2
:01A1510022EB
:0BA562009002A8EBF0A3EAF0A3E9F0E0
:10A56D00D20E90023AE0FFA3E0FEB507047F018012
:10A57D00027F00BF0104C20E8046EE75F003A424D5
:10A58D003DF9740235F0FA7B01C003C0029002A8B8
:10A59D00E0FBA3E0FAA3E0F8AC02AD03D002D003D8
:10A5AD007E007F031287A790023CE0FF90023BE004
:10A5BD00FEB507047F008003EE04FF90023BEFF031
:02A5CD00A20EDC
:01A5CF002269
:109D8B0090029E12867B00000000C202C200C2033A
:109D9B00C20112A5D0D2E843D820907FAB74FFF05C
:109DAB00907FAFE04401F0907FAEE0441DF0D2AF66
:109DBB00200158200105D21F12ADAA90029E1286D7
:109DCB007B000000007F487E927D007C0090029E0D
:109DDB00E0F8A3E0F9A3E0FAA3E0FBC312865E5020
:109DEB00CF2001CC90029EE0FCA3E0FDA3E0FEA3FC
:109DFB00E07A00790078002401FFEA3EFEE93DFDA0
:109E0B00E83CFC90029E12866F80BA12AC86300141
:109E1B0005128CC9C20130021A12B2235015C202AC
:109E2B0012AFC7200007907FD6E020E7F312B106F0
:089E3B0012B22E12B21680D6FD
:019E430022FC
:108CC900907FE9E07003028DC3147003028E3F2484
:108CD900FE7003028EB324FB7003028DBD14700372
:108CE900028DB7147003028DAB147003028DB12489
:108CF900056003028F0712B2254003028F13907F8C
:108D0900EBE024FE601914604D24026003028DA17A
:108D19007411907FD4F074CE907FD5F0028F1390A8
:108D29007FEAE0FF12A3759002ABEBF0A3EAF0A390
:108D3900E9F04A60179002ABE0A3E0FAA3E0F9EA90
:108D4900907FD4F0E9907FD5F0028F13907FB4E043
:108D59004401F0028F13907FEAE0FF12A904900208
:108D6900ABEBF0A3EAF0A3E9F04A60229002ABE092
:108D7900A3E0FAA3E0F9EA907FD4F0E9907FD5F077
:108D8900E4907FB5F0907FB47402F0028F13907F66
:108D9900B4E04401F0028F13907FB4E04401F00283
:108DA9008F1312B183028F1312B1CB028F1312B139
:108DB900C1028F1312B173028F1312B2274003023B
:108DC9008F13907FE8E0247F6024146031240270BF
:108DD9005BA200E433FF25E0FFA203E4334F907F59
:108DE90000F0E4A3F0907FB57402F0028F13E490D1
:108DF9007F00F0A3F0907FB57402F0028F13907F8B
:108E0900ECE0F45480FFC4540FFFE054072F25E031
:108E190024B4F582E4347FF583E054FD907F00F0BB
:108E2900E4A3F0907FB57402F0028F13907FB4E051
:108E39004401F0028F1312B2294003028F13907F6D
:108E4900E8E024FE601D24026003028F13907FEA8C
:108E5900E0B40105C200028F13907FB4E04401F031
:108E6900028F13907FEAE07038907FECE0F4548031
:108E7900FFC4540FFFE054072F25E024B4F582E422
:108E8900347FF583E4F0907FECE05480FF131313F3
:108E9900541FFFE054072F907FD7F0E04420F08063
:108EA90069907FB4E04401F0806012B22B505B906E
:108EB9007FE8E024FE60182402704F907FEAE0B456
:108EC9000104D2008044907FB4E04401F0803B90DB
:108ED9007FEAE07020907FECE0F45480FFC4540FE7
:108EE900FFE054072F25E024B4F582E4347FF583AD
:108EF9007401F08015907FB4E04401F0800C129861
:108F0900575007907FB4E04401F0907FB4E04402E9
:018F1900F067
:018F1A002234
:0300330002B21204
:04B2120053D8EF32EC
:10AFA500900264E024FA6012146007240770F17FB0
:10AFB5000822E4900264F07F0722E4900264F07FA7
:02AFC500062262
:08B1D500E4900264F0D2E922CB
:10ADE000900264E0FEE0702804F090025FEDF0A3B2
:10ADF000EBF0A3EAF0A3E9F0E4900263F0907FA502
:10AE0000E04480F0EF25E0907FA6F012AFA5AE07FA
:02AE1000AF068B
:01AE1200221D
:10AD0800900264E0FEE0702B7403F090025FEDF0B7
:10AD1800A3EBF0A3EAF0A3E9F0E4900263F0907FDC
:10AD2800A5E04480F0EF25E04401907FA6F012AF43
:05AD3800A5AE07AF0607
:01AD3D0022F3
:03004B000292F529
:1092F500C0E0C083C082C085C084C086758600C0BA
:10930500D075D010907FA5E030E21090026474060D
:10931500F0907FA5E04440F002944E900264E06432
:10932500026017907FA5E020E1109002647407F0B9
:10933500907FA5E04440F002944E900264E024FE44
:1093450070030293CA14604524FE700302944224FC
:1093550004600302944E900260E0FBA3E0FAA3E0F0
:10936500F9900263E0F58275830012854F907FA620
:10937500F0900263E004F090025FE0FF900263E08A
:109385006F600302944EA37405F002944E907FA67D
:10939500E0FF900260E0FBA3E0FAA3E0F99002632E
:1093A500E0F582758300EF12858E9002647402F0F9
:1093B50090025FE06401600302944E907FA5E04453
:1093C50020F002944E90025FE024FEFF900263E0DD
:1093D500B51707907FA5E04420F090025FE014FFE9
:0793E500900263E06F70319C
:1093EC00A3F0C2AF907FA5E04440F0907FA6E09040
:1093FC0002C2F0D2AFE0FF900260E0FBA3E0FAA360
:0F940C00E0F9900263E0F582758300EF12858E20
:10941B00801D907FA6E0FF900260E0FBA3E0FAA323
:10942B00E0F9900263E0F582758300EF12858E9070
:10943B000263E004F0800C907FA5E04440F09002C2
:10944B0064E4F05391DFD0D0D086D084D085D08225
:05945B00D083D0E032D7
:06AB5100AB07AA06A905EE
:10AB5700E4FD900265E0135011EAFFAE050DEE2407
:10AB6700AEF582E43402F583EFF0EBAE050D74AE7B
:10AB77002EF582E43402F583EBF0AE050D74AE2EAC
:10AB8700F582E43402F583E9F0900265E0FF7B018A
:07AB97007A0279AE12ADE075
:01AB9E002294
:06B20C00900265EFF02244
:10AB9F0090027BEEF0A3EFF0A3EDF0A3EAF0A3EBAE
:01ABAF00F0B5
:10ABB000E4A3F090027DE0FF900280E0C39F502B61
:10ABC000E0FDFF90027CE02FFF90027BE03400FE6E
:10ABD00090027EE0FAA3E02DF582E43AF583E0FDF1
:0BABE00012AB51900280E004F080C82E
:01ABEB002247
:10A7140090024FEEF0A3EFF0A3EDF0A3EAF0A3EB69
:01A72400F044
:10A72500E4FDA3F0900265E0FB13501490024FE0A6
:10A73500FFAE050DEE2455F582E43402F583EFF006
:10A74500900250E0FFAE050D74552EF582E43402FB
:10A75500F583EFF0AF037B017A02795512ADE090F6
:10A765000265E0FF900251E0FDA3E0FAA3E0F97B6A
:04A775000112AD0818
:01A7790022BD
:10A03700900281EEF0A3EFF0A3ECF0A3EDF0A903FB
:10A04700D20FE4A3F0A3F0900283E0FEA3E0FFA306
:10A05700E0FCA3E0FDC39FEC9E5020900281E0FE50
:10A06700A3E02DF582EC3EF583E9F0900286E0044B
:10A07700F07006900285E004F080CCE4900285F051
:10A08700A3F0900283E0FEA3E0FFA3E0FCA3E0FDC2
:10A09700C39FEC9E5026900281E0FEA3E02DF5823F
:10A0A700EC3EF583E0696004C20F8010900286E001
:0EA0B70004F07006900285E004F080C6A20F4F
:01A0C5002278
:0E9CD100900287EEF0A3EFF0A3ECF0A3EDF00D
:109CDF00900287E0FEA3E0FFA3E0FCA3E0FD7B552D
:109CEF0012A0379210201003029D88E490028BF08F
:109CFF00A3F0900289E0FEA3E0FFA3E0FCA3E0FD48
:109D0F00C39FEC9E5029EC75F003A4FFE02FFF904A
:109D1F000287E0FAA3E02DF582EC3AF583EFF0909D
:109D2F00028CE004F0700690028BE004F080C3E434
:109D3F0090028BF0A3F0900289E0FEA3E0FFA3E076
:109D4F00FCA3E0FDC39FEC9E502FEC75F003A4FF26
:109D5F00E02FFF900287E0FAA3E02DF582EC3AF5B1
:109D6F0083E06F6004C210801090028CE004F070EA
:0B9D7F000690028BE004F080BDA210F3
:019D8A0022B6
:10997500900266EFF0900268EAF0A3EBF0900266C1
:10998500E0C394045073ED6401706EE0FF75F04719
:10999500A42483F582E5F03400F583E4F075F047FF
:1099A500EFA42484F582E5F03400F583E4F075F046
:1099B50047EFA42485F582E5F03400F5837440F083
:1099C50075F047EFA42482F582E5F03400F5837441
:1099D50001F075F047EFA42480F582E5F03400F539
:1099E50083E4F090026BE0FE75F047EFA42481F567
:1099F50082E5F03400F583EEF0900266E014601C19
:109A050014602B14602824037045900268E0FEA3BF
:109A1500E0FFA3E0FDA3E0FB12A63E22900268E072
:109A2500FEA3E0FFA3E0FDA3E0FB12A2F02290025B
:109A350066E0FF900268E0FCA3E0FDA3E0FBA3E085
:109A4500900291F090026CE0900292F012B16122C6
:10B0D200E4FF75F047EFA42482F582E5F03400F531
:09B0E200837401F00FEFB404E9DE
:01B0EB002242
:10A63E009002BAEEF0A3EFF0E4F598ED7010EBB4E3
:10A64E000206C29FD29E8006D29FD29EC29DD29CEF
:10A65E0075C834538EFD75CBFF9002BAE0FEA3E0B1
:10A66E008EF01286B8A69F2580A69A4B00A69570EE
:10A67E0080A6909600A68BE1000000A6A475CAF3F2
:10A68E00801775CAEC801275CAE5800D75CAD9801F
:0CA69E000875CAB1800375CAECD2AC226A
:10A2F0009002BCEEF0A3EFF0E4F5C0ED7010EBB40B
:10A300000206C2C7D2C68006D2C7D2C6C2C5D2C450
:10A31000D2DF5389F0438920438E10438780900217
:10A32000BCE0FEA3E08EF01286B8A3680960A363C8
:10A3300012C0A35E2580A3594B00A3547080A34F85
:10A340009600A34AE1000000A36D758DFA80217587
:10A350008DF6801C758DF38017758DEC8012758DD0
:10A36000D9800D758DB28008758D648003758DEC74
:05A37000D28ED2AE22E6
:03002300029460E4
:10946000C0E0C0F0C083C082C085C084C08675865D
:1094700000C0D075D000C000C001C002C003C0044D
:0C948000C005C006C007209803029554E8
:10948C00D2119002C3E599F0C298900081E0FF647C
:10949C0002601C9002C3E0A2D09211EFB40102B2A0
:1094AC0011A211309A01B34003D38001C392112051
:1094BC00110302954B900082E0B40112E4F090028B
:1094CC00C3E0907E00F0907FB97401F0807A900038
:1094DC0084E0FF700AA3E0FE900083E06E601490BD
:1094EC000083E02401FDE433FC7E00EDB5070AEEB9
:1094FC00B504067E007F0180047E007F00EF4E7075
:10950C002C9002C3E0FF900083E0FE2486F582E4F9
:10951C003400F583EFF0900085E0FFEEB507047F93
:10952C00008003EE04FF900083EFF0801B7F057D2D
:10953C0002E4FB12A0C6900083E4F0A3F080097F44
:08954C00057D03E4FB12A0C63B
:10955400309946907FC9E0FF900080E0FEC39F50A1
:1095640031A3E0FF6402601574C02EF582E4347DFB
:10957400F583E0A2D0929BEFB40102B29B74C02E9B
:10958400F582E4347DF583E0F599900080E004F001
:109594008005907FC9E4F0C299D007D006D005D0E9
:1095A40004D003D002D001D000D0D0D086D084D053
:0A95B40085D082D083D0F0D0E032E1
:03003B000295BE6D
:1095BE00C0E0C0F0C083C082C085C084C0867586FE
:1095CE0000C0D075D000C000C001C002C003C004EE
:0C95DE00C005C006C00720C0030296B202
:1095EA00D2129002C4E5C1F0C2C09000C8E0FF6484
:1095FA0002601C9002C4E0A2D09212EFB40102B23F
:10960A0012A21230C201B34003D38001C3921220C6
:10961A0012030296A99000C9E0B40112E4F0900284
:10962A00C4E0907D00F0907FBD7401F0807A9000D4
:10963A00CBE0FF700AA3E0FE9000CAE06E601490CF
:10964A0000CAE02401FDE433FC7E00EDB5070AEE12
:10965A00B504067E007F0180047E007F00EF4E7015
:10966A002C9002C4E0FF9000CAE0FE24CDF582E40B
:10967A003400F583EFF09000CCE0FFEEB507047FED
:10968A00008003EE04FF9000CAEFF0801B7F057D87
:10969A00027B0112A0C69000CAE4F0A3F080097F01
:0896AA00057D037B0112A0C63F
:1096B20030C146907FCDE0FF9000C7E0FEC39F50CF
:1096C20031A3E0FF6402601574C02EF582E4347C9D
:1096D200F583E0A2D092C3EFB40102B2C374C02EEC
:1096E200F582E4347CF583E0F5C19000C7E004F034
:1096F2008005907FCDE4F0C2C1D007D006D005D05E
:1097020004D003D002D001D000D0D0D086D084D0F3
:0A97120085D082D083D0F0D0E03281
:10B12000907F95E054FDF0907F9EE04402F0907F88
:06B1300098E054FDF0223E
:10B13600907F98E04402F0907F9EE054FDF0907F6F
:06B1460095E04402F02236
:10ABEC00E4FFC213EFC39407504020133DEF75F000
:10ABFC0007A4240BF582E43402F583E0FCA3E0FD0A
:10AC0C00BCFF24BDFE21EF75F007A4240BF582E4F4
:10AC1C003402F58374FFF0A3F0EF12857C900208E8
:0CAC2C00E004F0D21380BD0F80BAA21328
:01AC380022F9
:10AE79009002C5EFF0AF05E0FD75F007A42409F5D0
:10AE890082E43402F583ECF0A3EFF0ED75F007A44A
:10AE9900240DF582E43402F583EBF0A3EAF0A3E98B
:02AEA900F02295
:01B22D0022FE
:0EB19300C21490020BEEF0A3EFF03014FD2278
:03B21A00D2142229
:10A8A3009002087401F0E4FFEF75F007A4240BF5A0
:10A8B30082E43402F58374FFF0A314F0EF75F0071C
:10A8C300A4240DF582E43402F58374FFF0A374B27B
:10A8D300F0A3742DF00FEFB407CE74FF90020BF0CA
:10A8E300A3F0A3F0A374B2F0A3741AF0C28C43894B
:10A8F30001538EF7C28C758CF8758A30D28CD2A92D
:01A903002231
:03000B00029B3223
:109B3200C0E0C0F0C083C082C085C084C086758684
:109B420000C0D075D000C000C001C002C003C00474
:069B5200C005C006C007BB
:109B58009002C6E4F0900208E0FF9002C6E0FEC35F
:109B68009F506FEE75F007A4240BF582E43402F5DC
:109B780083E0FCA3E0FDD39400EC6480948040175C
:109B8800EE75F007A4240BF582E43402F58374FF24
:109B9800F5F01285B08033ED4C702F9002C6E0FFCF
:109BA80075F007A4240BF582E43402F58374FFF002
:109BB800A3F0EF75F007A4240DF582E43402F583D1
:109BC800E0A3E0FAA3E0F91286E59002C6E004F00B
:0C9BD8008083C28C758CF8758A30D28CAA
:109BE400D007D006D005D004D003D002D001D000D5
:109BF400D0D0D086D084D085D082D083D0F0D0E0AD
:019C0400322D
:10B161000F0DBD00010C0B900291E004F0A3E0046F
:02B17100F022CA
:10A47D004801AEFFFFFFFFFFFFFFFF602801E00176
:10A48D0021017E400101AE003C017E440101B2007C
:10A49D003D017E450101B3003E017E460101B40040
:10A4AD003F017E470101B5602801B80120017E8082
:10A4BD00017E800038017E88017E880039017E8909
:10A4CD00017E89003A017E8A017E8A003B017E8BE6
:0FA4DD00017E8B41019C0041019D0041019E00C9
:10A5D000D200907FA17401F0907F937404F0907F7B
:10A5E00094740CF0907F957443F0E4907F96F09013
:10A5F0007F97F0907F98F0907F9C74F1F0907F9D12
:10A6000074A3F0E4907F9EF0907FAD7416F0907F7D
:10A61000AC741EF0907FDF7417F0907FDE741FF033
:10A62000E4907FE0F0907FE1F0D2B9D2BAD2BBD211
:0EA63000BCD2BDD2BED2F8D2F9C2FAC2FC2210
:10AC860012B1A1E4FF7D01FB7A9690026AF0A3F06F
:10AC9600A3F01299757F017D017B007A4BE4900247
:10ACA6006AF0A37402F0E4A3F012997512A8A31235
:10ACB600B1D57F5112B20C129E44907FAEE0440291
:02ACC600F0227A
:109E44009001A8E054FEF054FDF054F7F0E4A3F0C0
:109E5400A3F0A3F012AF03E49001A3F0A3F07B01FD
:109E64007A0179A212ABEC7B017A0179A512ABECF1
:109E74009001A5E0FF7D647C007BFF7AB179ED124F
:109E8400AE797B017A0179A612ABEC9001A6E0FFD2
:109E94007DF47C017BFF7AB179F512AE797B017A8E
:109EA4000179A712ABEC9001A7E0FF7D027C007B57
:109EB400FF7AB179B712AE797B017A0179A112AB3D
:109EC400EC12B0079001A1E0FF75F007A42409F596
:109ED40082E5F03402F583E0FCA3E0FD75F007EFC2
:109EE400A4240BF582E5F03402F583ECF0A3EDF045
:019EF400224B
:08B1DD009001A0E04402F02201
:08B1E5009001A0E04404F022F7
:10AEAB001285369001A9F090000112854F9001AAEE
:10AEBB00F090000212854F9001ABF09001A0E0449E
:0DAECB0008F0907FB67401F0907FC6F02271
:0AB1AD007F037D02E4FB12A0C6221E
:08B1ED009001A0E04410F022E3
:08B1F5009001A0E04420F022CB
:0AB1B7007F037D03E4FB12A0C62213
:10A77A009001A8E0FF1313543F5401FEBE01159047
:10A78A007F96E0F0907F97E04480F0EF54FB9001D1
:10A79A00A8F08013907F96E0F0907F97E0547FF0C6
:10A7AA00EF44049001A8F09001A1E0FF75F007A41E
:10A7BA002409F582E5F03402F583E0FCA3E0FD7597
:10A7CA00F007EFA4240BF582E5F03402F583ECF0F0
:04A7DA00A3EDF022D9
:07B205009001B77401F02273
:108000009001A0E0FF131313541F54016401700387
:108010000285359002C7E0FF131313541F54016407
:10802000017003028535907F9BE05408FF13131302
:10803000541FFFBF011B907F96E044F0F0907F97A4
:10804000E04403F0907F96E0F0907F97E054DFF0FB
:1080500022907E84E0C4540F54016401701B907F11
:1080600096E04460F0907F97E0F0907F96E0546F48
:10807000F0907F97E054DCF022907E82E0FEA3E057
:108080007802CEC313CE13D8F920E01D907F96E07E
:1080900044B0F0907F97E04421F0907F96E054BF89
:1080A000F0907F97E054FDF022907E84E0C413139B
:1080B00013540154016401701B907F96E044F0F06A
:1080C000907F97E04420F0907F96E0F0907F97E0DB
:1080D00054FCF022E4907E83E054016401701D9012
:1080E0007F96E04460F0907F97E04422F0907F9686
:1080F000E0546FF0907F97E054FEF022907E86E08F
:108100001313543F54016401701D907F96E044D0D6
:10811000F0907F97E04422F0907F96E054DFF0905B
:108120007F97E054FEF022907E82E0C313A3E01319
:1081300020E01B907F96E044D0F0907F97E04423AE
:10814000F0907F96E054DFF0907F97E0F022907EF1
:1081500082E0FEA3E07803CEC313CE13D8F9540116
:108160006401701B907F96E04470F0907F97E0F080
:10817000907F96E0547FF0907F97E054DCF022905F
:108180007E82E0FEA3E07805CEC313CE13D8F95467
:108190000164017019907F96E044F0F0907F97E0C1
:1081A0004423F0907F96E0F0907F97E0F022907E5D
:1081B00082E0C4F854F0C868A3E0C4540F4820E03B
:1081C0001B907F96E044F0F0907F97E04422F0907F
:1081D0007F96E0F0907F97E054FEF022907E82E060
:1081E000FEA3E07807CEC313CE13D8F9540164017F
:1081F000701B907F96E04470F0907F97E04423F0EE
:10820000907F96E0547FF0907F97E0F022907E82FE
:10821000E0FEA3E07806CEC313CE13D8F920E01B0E
:10822000907F96E044F0F0907F97E04421F0907FBB
:1082300096E0F0907F97E054FDF022907E82E0C3BC
:108240001354016401701B907F96E044C0F0907F4E
:1082500097E04423F0907F96E054CFF0907F97E032
:10826000F022907E82E020E01B907F96E044C0F0F8
:10827000907F97E04423F0907F96E054CFF0907F7A
:1082800097E0F022907E82E0131313541F54016490
:1082900001701D907F96E04480F0907F97E044212C
:1082A000F0907F96E0548FF0907F97E054FDF0229D
:1082B000907E82E01313543F20E01D907F96E044AF
:1082C000E0F0907F97E04421F0907F96E054EFF04B
:1082D000907F97E054FDF022907E86E0FEA3E07848
:1082E00007CEC313CE13D8F920E01B907F96E0444D
:1082F00090F0907F97E04423F0907F96E0549FF0B9
:10830000907F97E0F022907E86E0FEA3E07806CE94
:10831000C313CE13D8F920E01B907F96E044B0F051
:10832000907F97E04423F0907F96E054BFF0907FD9
:1083300097E0F022907E82E0C41354075401640158
:10834000701B907F96E04410F0907F97E04423F0FC
:10835000907F96E0541FF0907F97E0F022907E820D
:10836000E0C4540F20E01B907F96E04460F0907FC3
:1083700097E04423F0907F96E0546FF0907F97E071
:10838000F022907E84E01313543F5401640170275F
:10839000E0131313541F54016401701B907F96E087
:1083A0004440F0907F97E04423F0907F96E0544F54
:1083B000F0907F97E0F022907E86E0540164017097
:1083C0001B907F96E0F0907F97E04401F0907F96BD
:1083D000E0540FF0907F97E054DDF022907E86E02D
:1083E000C31354016401701D907F96E044E0F09047
:1083F0007F97E04401F0907F96E054EFF0907F97F4
:10840000E054DDF022907E82E0C413131354012067
:10841000E01D907F96E04480F0907F97E04403F069
:10842000907F96E0548FF0907F97E054DFF0229099
:108430007E82E0C41313540354016401701D907FC5
:1084400096E04440F0907F97E04421F0907F96E0E2
:10845000544FF0907F97E054FDF022907E84E0C46A
:108460001313540354016401701D907F96E044C0BF
:10847000F0907F97E04421F0907F96E054CFF09009
:108480007F97E054FDF022907E84E0C4135407549B
:10849000016401701B907F96E04430F0907F97E07C
:1084A0004423F0907F96E0543FF0907F97E0F022D5
:1084B000907E84E0C313A3E01320E01B907F96E03E
:1084C000F0907F97E04421F0907F96E0540FF09079
:1084D0007F97E054FDF022907E86E0131313541F23
:1084E000540164017019907F96E0F0907F97E0440A
:1084F00023F0907F96E0540FF0907F97E0F022E415
:10850000907E85E054016401701D907F96E044C028
:10851000F0907F97E04401F0907F96E054CFF09088
:108520007F97E054DDF022907F96E0540FF0907F2B
:0685300097E054DCF0228C
:10AF03009002B17401F0A37401F0A374A0F0E4FF04
:10AF13009002B1E0FBA3E0FAA3E0F98F827583000E
:09AF2300E412858E0FEFB401E782
:01AF2C002202
:109C050012AED87B017A0179AD12ABEC9001ADE0D3
:109C1500FF7DD07C077BFF7AB2790512AE79900182
:109C2500ADE0FF75F007A42409F582E5F03402F5EF
:109C350083E0FCA3E0FD75F007EFA4240BF582E5B6
:109C4500F03402F583ECF0A3EDF012B220500312CC
:109C5500B0EC12A1DE9001A8E05401FFBF010C9009
:109C65007F96E04440F0907F97E0F012B2205003D9
:109C750012B0EC12A8419001A8E0FFC3135401FFF4
:109C8500BF010C907F96E04480F0907F97E0F01242
:109C9500B14C907E82E0FEA3E07802CEC313CE13D2
:109CA500D8F9540164017003D38001C3921512B22F
:109CB50020400720150412B1FD2212B220500320C6
:0B9CC50015097F047D03E4FB12A0C61C
:019CD0002271
:10B00700907FC67401F0E490019FF09001A1E0FFEA
:0EB017007DE87C037BFF7AA7797A12AE79225E
:10A95D00907FC67401F0FB7A0179AEFD12912B90B8
:10A96D00019F7402F09001A1E0FF7DE87C037BFF65
:10A97D007AA7797A12AE799001A5E0FF75F007A458
:10A98D002409F582E5F03402F583E0FCA3E0FD75C2
:10A99D00F007EFA4240BF582E5F03402F583ECF01B
:04A9AD00A3EDF02204
:10AD3E0012B21D907FC67401F012B0999001A1E07D
:10AD4E0075F007A4240BF582E5F03402F58374FF49
:10AD5E00F0A3F0907F96E0F0907F97E04480F09023
:06AD6E00019F7404F022B5
:10AA5800907F9BE05408FF131313541F703190012B
:10AA68009F04F09001A6E0FF75F007A42409F58281
:10AA7800E5F03402F583E0FCA3E0FD75F007EFA4F0
:10AA8800240BF582E5F03402F583ECF0A3EDF090A9
:10AA980002C8E0FF131313541F5401FFBF01031230
:03AAA800AD3E229E
:10A6AA009002C9E0FFC41354075401640170479033
:10A6BA00019F7402F0129C059001A5E0FF75F00756
:10A6CA00A42409F582E5F03402F583E0FCA3E0FD59
:10A6DA0075F007EFA4240BF582E5F03402F583EC5C
:10A6EA00F0A3EDF09001A1E0FF7DE87C037BFF7A07
:10A6FA00A7797A12AE799002C9E0FF131313541F97
:0AA70A005401FFBF010312AD3E220F
:10ACC800907E84E0C41313540354016401700FE0B0
:10ACD800C41354075401640170047D018002E4FD2B
:10ACE8009002CAE0FFC4540F5401FFBF010790014E
:0FACF800A0E04410F0BF0106ED7003D38001C34C
:01AD07002229
:109A550078CA7C027D017B017A0279CB7E007F0189
:109A65001287A712ACC892169002CBE0FF1313130E
:109A7500541F5401FFBF010412AD3E229002CBE0FA
:109A85005401FFBF011B9001A2E075F007A4240B50
:109A9500F582E5F03402F58374FFF0A3F012B00708
:109AA5002230160D12AD3E7F047D02E4FB12A0C6E6
:109AB500229002CBE0FFC31354016401706EEF13D3
:109AC50013543F20E0669001A8E054F7F0E4907F3E
:109AD500C6F0907FD704F0E04420F0907FC6E054B4
:109AE5000264026003E4A3F09001A2E0FF75F007B1
:109AF500A42409F582E5F03402F583E0FCA3E0FD3A
:109B050075F007EFA4240BF582E5F03402F583EC3C
:109B1500F0A3EDF090019F7403F09001A1E0FF7DAB
:0C9B2500647C007BFF7AA7797A12AE798D
:019B31002211
:10AD740078CC7C027D017B017A0279CC7E007F0154
:10AD84001287A7907F9BE05408FF131313541F707E
:10AD94001490019CE0700E7F047D04FB12A0C69009
:05ADA400019C7401F0A8
:01ADA9002287
:10A7DE009002CDE0FF131313541F5401FFBF010469
:10A7EE0012AD3E229002CDE05401FFBF011B90013D
:10A7FE00A2E075F007A4240BF582E5F03402F58390
:10A80E0074FFF0A3F012B007229002CDE0FF1313F5
:10A81E00543F5401FFBF011A9001A2E075F007A446
:10A82E00240BF582E5F03402F58374FFF0A3F012E9
:03A83E00A95D22EF
:10971C00C2AF78CE7C027D017B017A0179A07E00FC
:10972C007F011287A712AF03D2AF90019FE01460A4
:10973C003F14606B1470030297E7240360030298D4
:10974C003D78C77C027D017B017A0279CE7E007F59
:10975C00011287A712800078C87C027D017B017AF8
:10976C000279CE7E007F011287A712AA5802985365
:10977C0078C77C027D017B017A0279CE7E007F0165
:10978C001287A712800078C97C027D017B017A02C6
:10979C0079CE7E007F011287A712A6AA02985312D7
:1097AC008A547B017A0179AE7D0112912B78C77CAA
:1097BC00027D017B017A0279CE7E007F011287A7A0
:1097CC0012800078CB7C027D017B017A0279CE7EFF
:1097DC00007F011287A7129A55806C128A5490014F
:1097EC00A8E0FF131313541F20E00D7B017A0179BD
:1097FC00AE7D0112912B800B7B017A7E7940E4FDCA
:10980C0012912B78C77C027D017B017A0279CE7E86
:10981C00007F011287A712800078CD7C027D017B2E
:10982C00017A0279CE7E007F011287A712A7DE8013
:10983C001678CC7C027D017B017A0279CE7E007F8A
:0A984C00011287A712AD7412B0ECF0
:0198560022EF
:05A9B1009002CFEDF063
:10A9B600C2089001A0E05401FEBE0104D20880370F
:10A9C600EF24F96007147023D208802B30070E7F1E
:10A9D600027D039002CFE0FB12A0C6801A7F027DA3
:10A9E600049002CFE0FB12A0C6800C7F027D02908D
:09A9F60002CFE0FB12A0C6A2088A
:01A9FF002235
:05B025009002D0EFF0E5
:10B02A00D217E0FF7D0112AD089002D0E0FDD207F1
:07B03A0012A9B19217A21741
:01B0410022EC
:05B042009002D1EFF0C7
:10B04700D218E0FF7D0212AD089002D1E0FDD207D1
:07B0570012A9B19218A21822
:01B05E0022CF
:05B05F009002D2EFF0A9
:10B06400D219E0FF7D0112ADE09002D2E0FDC207EB
:07B0740012A9B19219A21903
:01B07B0022B2
:05B07C009002D3EFF08B
:10B08100D21AE0FF7D0212ADE09002D3E0FDC207CB
:07B0910012A9B1921AA21AE4
:01B098002295
:10A1DE00E49002BFF09001A8E054FEF0D209D20A3A
:10A1EE009002BE7438F0300A249002BEE0FFD39481
:10A1FE003B501A7D017B017A0279BF12AD08EF64E4
:10A20E00086002C20A9002BEE004F080D99002BE3D
:10A21E00743CF03009289002BEE0FFD3943F501EEC
:10A22E00A374FFF07D017B017A0279BF12ADE0EFDE
:10A23E0064086002C2099002BEE004F080D53009C5
:10A24E000B300A089001A8E04401F022E4FF7F04DD
:09A25E00907E8874FFF0A3DFFC80
:01A2670022D4
:10A84100E49002B5F0A3F09001A8E054FDF0D20B22
:10A85100D20C9002B47420F0FF7D027B017A027960
:10A86100B512AD08EF64086002C20C9002B4742105
:10A87100F074FFA3F0A3F07F217D027B017A0279BE
:10A88100B512ADE0EF64086002C20B300B0B300C67
:10A89100089001A8E04402F02274FF907E80F0A3AA
:01A8A100F0C6
:01A8A2002293
:10AED8009002B874ACF0A3E4F07F487B017A027961
:10AEE800B812B07C921B301B119002B77451F07FDE
:0AAEF800487B017A0279B712B05FBF
:01AF0200222C
:05912B0090026DEDF063
:10913000900002128607FF900272E5F0F0A3EFF0B4
:10914000900272E0F0A3E044FCF07F247B017A02FD
:10915000797212B07C921C201C030292F490019D43
:10916000E075F008A424E0F582E43401F583E064BE
:109170000160030292779001A8E0FFC313540164D9
:1091800001706790019DE0FF75F008A424E2F5826C
:10919000E43401F583C083C08290026DE0D082D0B8
:1091A0008375F0031286ACE0FBA3E0FAA3E0F912AA
:1091B00085DCFD90026EE5F0F0A3EDF0EF75F008B0
:1091C000A424E1F582E43401F583E0FF7B017A0217
:1091D000796E12B07C921C201C030292F490019DC7
:1091E000E00475F00584E5F0F02290019DE004753F
:1091F000F00584E5F0F09001A8E05401640170717D
:10920000900270F090019DE0FF75F008A424E2F553
:1092100082E43401F583C083C08290026DE0D08285
:10922000D08375F0031286ACE0FBA3E0FAA3E0F96B
:10923000128536900271F0EF75F008A424E1F582F2
:10924000E43401F583E0FF7B017A02797112B05FAB
:10925000921C201C030292F490019DE00475F0051D
:1092600084E5F0F0900270E004F0E0C394024094D2
:1092700022E490019DF0229001A8E0540164017065
:109280006E900270F090019DE0FF75F008A424E25A
:10929000F582E43401F583C083C08290026DE0D092
:1092A00082D08375F0031286ACE0FBA3E0FAA3E062
:1092B000F9128536900271F0EF75F008A424E1F5FB
:1092C00082E43401F583E0FF7B017A02797112B008
:1092D0005F921C301C1E90019DE00475F00584E532
:1092E000F0F0900270E004F0E0C39402409722E4B2
:0492F00090019DF05C
:0192F4002257
:108A54007F227B017A02799612B042921D201D0377
:108A6400028CC8900296E0FFA3E0907E82CFF0A330
:108A7400EFF07F237B017A02799612B042921D2097
:108A84001D03028CC8900296E0FFA3E0907E84CF81
:108A9400F0A3EFF07F247B017A02799612B0429220
:108AA4001D201D03028CC8900296E0FFA3E0907E77
:108AB40086CFF0A3EFF09001B7E064016003028B6E
:018AC4005F52
:108AC50090029574AAF07F487B017A02799512B0DD
:108AD5005F921D201D03028CC87F487B017A0279B5
:108AE5009612B042921D201D03028CC8900296E09A
:108AF500FFA3E0FEEF6EFF900296F0A3E06FFFF09C
:108B0500900296E06FF0E0FFA3E0907D80CFF0A3A8
:108B1500EFF0900297E0A3F0D3648094C1400A7F00
:108B2500047D05E4FB12A0C622E49001B7F0900194
:108B3500ADE0FF75F007A42409F582E5F03402F5F0
:108B450083E0FCA3E0FD75F007EFA4240BF582E5B7
:0A8B5500F03402F583ECF0A3EDF01C
:108B5F0090019EE0FF75F008A424B8F582E434017B
:108B6F00F583E064016003028C599001A8E0FEC315
:108B7F0013540164017054EF75F008A424B9F58201
:108B8F00E43401F583E0FF7B017A02799612B0425B
:108B9F00921D201D03028CC8900296E0F9A3E0FFFE
:108BAF0090019EE075F008A424BAF582E43401F533
:108BBF0083E0FBA3E0FAA3E0C98FF012863F900198
:108BCF009EE00475F00584E5F0F02290019EE0042C
:108BDF0075F00584E5F0F09001A8E0540164017090
:108BEF0063900293F090019EE075F008A424B9F50C
:108BFF0082E43401F583E0FF7B017A02799412B0AD
:108C0F0025921D201D03028CC8900294E0FF900155
:108C1F009EE075F008A424BAF582E43401F583E0F0
:108C2F00FBA3E0FAA3E0F9EF12857C90019EE0042C
:108C3F0075F00584E5F0F0900293E004F0E0C39442
:108C4F000240A222E490019EF0229001A8E054017C
:108C5F0064017060900293F090019EE075F008A49B
:108C6F0024B9F582E43401F583E0FF7B017A0279C0
:108C7F009412B025921D301D40900294E0FF900198
:108C8F009EE075F008A424BAF582E43401F583E080
:108C9F00FBA3E0FAA3E0F9EF12857C90019EE004BC
:108CAF0075F00584E5F0F0900293E004F0E0C394D2
:098CBF000240A522E490019EF0A0
:018CC8002289
:10B14C00E49002D4F0128A549002D4E004F0E0C3EC
:04B15C00940540F125
:01B1600022CC
:10B09900E49002D5F07B017A0179AE7D0112912B02
:0CB0A9009002D5E004F0E0C3940540E9FB
:01B0B5002278
:10AFE800E49002D6F07B017A7F790012A5625006C0
:0EAFF8009002D67403F09002D6E0907FB5F080
:01B006002227
:10AC39007B017A7F79009001A8E0540112857C900C
:10AC490001A8E0FFC313540190000112858E900101
:10AC5900A9E090000212858E9001AAE090000312EB
:10AC6900858E9001ABE090000412858E90019FE0E3
:0CAC790090000512858E907FB57406F0E7
:01AC850022AC
:108F1B00907FEAE0FF900257E4F0A3EFF0907FEB35
:108F2B00E0FE900257E04EF0A3E0F0907FEEE0FF02
:108F3B00900259E4F0A3EFF0907FEFE0FE9002591E
:108F4B00E04EF0A3E0F0907FE8E064C06003029095
:108F5B0067900259E0FEA3E0FF4E700302912AC313
:108F6B00EF9440EE94005008A3EEF0A3EFF08009CD
:108F7B0090025BE4F0A37440F0907FE9E064A3708F
:108F8B005190025DF0A3F090025BE0FEA3E0FFA323
:108F9B00E0FCA3E0FDC39FEC9E40030290329002E5
:108FAB0057E0FEA3E0F5828E832DF582EC3583F539
:108FBB0083E0FF90025EE02400F582E4347FF583CA
:108FCB00EFF090025EE004F0700690025DE004F0BA
:108FDB0080B5907FE9E064A2704D90025DF0A3F044
:108FEB0090025BE0FEA3E0FFC390025EE09F900265
:108FFB005DE09E501EA3E02400F582E4347FF583F0
:10900B0074CDF090025EE004F0700690025DE00417
:10901B00F080CD900257E0FEA3E0FF90025CE0FDF4
:10902B007A7F7B0012A71490025CE0907FB5F090E2
:10903B00025BE0FEA3E0FF900258E02FF090025796
:10904B00E03EF0C390025AE09FF0900259E09EF090
:10905B00907FB4E020E203028F5C80F4907FE8E025
:10906B006440600302912A900259E07002A3E07001
:10907B000302912AE4907FC5F0907FB4E020E3F9DE
:10908B00907FC5E0FF90025BE4F0A3EFF0907FE9E7
:10909B00E064A3704B90025DF0A3F090025BE0FEE6
:1090AB00A3E0FFA3E0FCA3E0FDC39FEC9E504CE0CC
:1090BB0024C0F582E4347EF583E0FF900257E0FA9A
:1090CB00A3E0F5828A832DF582EC3583F583EFF0EF
:1090DB0090025EE004F0700690025DE004F080BB4D
:1090EB00907FE9E0B4A214900257E0FEA3E0FF905A
:1090FB00025CE0FD7A7E7BC012AB9F90025BE0FED0
:10910B00A3E0FF900258E02FF0900257E03EF0C32F
:0F911B0090025AE09FF0900259E09EF00290728D
:01912A002222
:04B2160012971C224D
:02B22300D32234
:01B22E0022FD
:02B22500D32232
:0AB1C100907FEAE09001B6F0D3227F
:10B173009001B6E0907F00F0907FB57401F0D32288
:0AB1CB00907FEAE09001ACF0D3227F
:10B183009001ACE0907F00F0907FB57401F0D32282
:02B22700D32230
:02B22900D3222E
:02B22B00D3222C
:10985700C21E907FE9E0245D700302996B04B41A7D
:10986700004003029970909874F828287302996B46
:1098770002997002997002997002997002997002A8
:109887009970029970029970029970029970029901
:10989700700299700299700298C202990002995158
:1098A7000299610299660299700299080299130256
:1098B700991C02992102992602993AE49001A3F092
:1098C700A3F0907FEAE0FF9001A3E4F0A3EFF0900C
:1098D7007FEBE0FE9001A3E04EF0A3E0F09001A241
:1098E700E0FFA3E0FCA3E0FD7BFF7AB179AD12AE08
:1098F7007912B1DD12971C807212B1E512971C80A4
:109907006A7F037D04E4FB12A0C6805F7F287E0088
:1099170012B193805612B120805112B136804CE4B7
:10992700FF7D01FB7A9690026AF0A3F0A3F01299EB
:10993700758038E4FF7D01FB7A4B90026AF0A374CF
:1099470002F0E4A3F01299758021907F96E0540FFE
:10995700F0907F97E054DCF0801112AFE8800C1292
:0D996700AC398007128F1B8002D21EA21E99
:0199740022D0
:10AF5700C0E0C083C082C085C084C086758600D229
:10AF6700015391EF907FAB7401F0D086D084D085E8
:07AF7700D082D083D0E0324C
:10AF2D00C0E0C083C082C085C084C0867586009095
:10AF3D007FC4E4F05391EF907FAB7404F0D086D0D2
:0AAF4D0084D085D082D083D0E0329A
:10A26800C0E0C0F0C083C082C085C084C086758647
:10A2780000C0D075D000C004C005C00790019FE0A1
:10A28800B4032E9001A7E0FF75F007A42409F58216
:10A29800E5F03402F583E0FCA3E0FD75F007EFA4D8
:10A2A800240BF582E5F03402F583ECF0A3EDF080A1
:10A2B800179001A7E075F007A4240BF582E5F034A8
:10A2C80002F58374FFF0A3F05391EF907FAB740213
:10A2D800F0D007D005D004D0D0D086D084D085D097
:08A2E80082D083D0F0D0E032F7
:10A4F300C0E0C0F0C083C082C085C084C0867586BA
:10A5030000C0D075D000C000C001C002C003C004A9
:10A51300C005C006C007907FB6E054026402600421
:10A52300A3740CF0907FBAE0540264026004A37435
:10A5330002F012B0D25391EF907FAB7410F0D007BA
:10A54300D006D005D004D003D002D001D000D0D0A3
:0FA55300D086D084D085D082D083D0F0D0E032B3
:01B22F0032EC
:10AF7E00C0E0C083C082C085C084C086758600D202
:10AF8E00025391EF907FAB7408F0D086D084D085B9
:07AF9E00D082D083D0E03225
:10AE1300C0E0C083C082C085C084C08675860090B0
:10AE23007FB6E0540264026004A3740CF05391EF04
:10AE3300907FA97402F0D086D084D085D082D0834D
:03AE4300D0E0322A
:10A3FA00C0E0C0F0C083C082C085C084C0867586B4
:10A40A0000C0D075D000C004C005C0079001A2E00A
:10A41A00FF75F007A42409F582E5F03402F583E01C
:10A42A00FCA3E0FD75F007EFA4240BF582E5F034F8
:10A43A0002F583ECF0A3EDF090019FE0B4031490D1
:10A44A0001A8E04408F0907FC6E054026402600369
:10A45A00A3E4F05391EF907FAA7402F0D007D005DD
:10A46A00D004D0D0D086D084D085D082D083D0F00A
:03A47A00D0E032FD
:109EF500C0E0C083C082C085C084C086758600C0AE
:0A9F0500D075D000C005C006C007EB
:109F0F009002D7E4F0900083E0FFA3E0FEB50704D2
:109F1F007F0180027F00EF703D9002D7E0FFC39476
:109F2F0040503374862EF582E43400F583E0FD74DF
:109F3F00002FF582E4347EF583EDF0900085E0B5D7
:109F4F0006047F008003EE04FF900084EFF0900280
:109F5F00D7E004F080AF9002D7E0FF6006907FB9A2
:109F6F00F080069000827401F05391EF907FA974F6
:029F7F0004F0EC
:109F8100D007D006D005D0D0D086D084D085D0825D
:059F9100D083D0E03296
:10AAAB00C0E0C083C082C085C084C086758600C0EC
:10AABB00D075D000C007900081E0FF6402600E905B
:10AACB007DC0E0A2D0929BEFB40102B29B907DC0FF
:10AADB00E0F5999000807401F05391EF907FAA7488
:10AAEB0004F0D007D0D0D086D084D085D082D0834C
:03AAFB00D0E03276
:10AE4600C0E0C083C082C085C084C086758600907D
:10AE56007FBAE0540264026004A37402F05391EFD7
:10AE6600907FA97408F0D086D084D085D082D08314
:03AE7600D0E032F7
:109F9600C0E0C083C082C085C084C086758600C00C
:0A9FA600D075D000C005C006C0074A
:109FB0009002D8E4F09000CAE0FFA3E0FEB50704E9
:109FC0007F0180027F00EF703D9002D8E0FFC394D4
:109FD00040503374CD2EF582E43400F583E0FD74F7
:109FE000002FF582E4347DF583EDF09000CCE0B5F0
:109FF00006047F008003EE04FF9000CBEFF0900298
:10A00000D8E004F080AF9002D8E0FF6006907FBDFA
:10A01000F080069000C97401F05391EF907FA9740D
:02A0200010F03E
:10A02200D007D006D005D0D0D086D084D085D082BB
:05A03200D083D0E032F4
:10AAFE00C0E0C083C082C085C084C086758600C099
:10AB0E00D075D000C0079000C8E0FF6402600E90C0
:10AB1E007CC0E0A2D092C3EFB40102B2C3907CC05D
:10AB2E00E0F5C19000C77401F05391EF907FAA74C5
:10AB3E0010F0D007D0D0D086D084D085D082D083EC
:03AB4E00D0E03222
:01B2300032EB
:01B2310032EA
:01B2320032E9
:01B2330032E8
:01B2340032E7
:01B2350032E6
:01B2360032E5
:01B2370032E4
:01B2380032E3
:06A4EC00C106C104C10518
:08B1FD00200504D204D2052252
:03B21D00C2042246
:03B22000A2042263
:10B0EC0030041630060AC206907F96E04401F02226
:0AB0FC00D206907F96E054FEF02289
:10B10600907FD6E030E712E04401F07F147E001213
:0AB11600B0B6907FD6E054FEF022A0
:10AFC700907FD6E04480F043870100000000002214
:10ADAA00907FD6E054FBF0E04408F0301F04E04402
:10ADBA0002F07FDC7E0512B0B6907FAB74FFF09094
:10ADCA007FA9F0907FAAF05391EF907FD6E054F7D5
:06ADDA00F0E04404F02249
:10A90400900299EFF0E4A3F0A374FFF0A37412F0A3
:10A91400A37454F090029BE0FBA3E0FAA3E0F99047
:10A92400000112854F64037029900299E0FFA3E0AF
:10A93400FE04F0EEB50701221285367E0029FFEEF3
:10A944003AFAA90790029B74FFF0A3EAF0A3E9F096
:09A9540080C27B007A0079002228
:10A37500900274EFF0E4A3F090027874FFF0A374F8
:10A3850011F0A374E0F0900278E0FBA3E0FAA3E0FB
:10A39500F990000112854F64027053900274E0FF3A
:10A3A500A3E0FE04F0EEB507012290000212860735
:10A3B500FF900276E5F0F0A3EFF0900276E0FFA3C0
:10A3C500E0FEEF6EFF900276F0A3E06FFFF09002E3
:10A3D50076E06FF0A3E029FF900276E03AFAA9074C
:10A3E50090027874FFF0A3EAF0A3E9F080987B006F
:05A3F5007A007900224E
:10B0B6009002C0EEF0A3EFF09002C074FFF5F0121C
:0CB0C60085C645F0600512AFD780ED2272
:10AFD7007400F58690FDA57C05A3E582458370F98D
:01AFE7002247
:0300430002AA000E
:10AA000002AF570002A2680002AF2D0002AF7E0025
:10AA100002A4F30002B22F0002B2320002B23300ED
:10AA200002AE130002A3FA00029EF50002AAAB00D8
:10AA300002AE460002B23400029F960002AAFE0057
:10AA400002B2350002B2360002B2300002B231006A
:08AA500002B2380002B2370027
:0300000002A15208
:0CA15200787FE4F6D8FD75812302A19906
:10853600BB010689828A83E0225002E722BBFE0243
:09854600E32289828A83E4932276
:10854F00BB010CE58229F582E5833AF583E02250E1
:10855F0006E92582F8E622BBFE06E92582F8E2222B
:0D856F00E58229F582E5833AF583E4932245
:10857C00BB010689828A83F0225002F722BBFE01DE
:02858C00F322D8
:10858E00F8BB010DE58229F582E5833AF583E8F023
:10859E00225006E92582C8F622BBFE05E92582C8CF
:0285AE00F222B7
:1085B000C5F0F8A3E028F0C5F0F8E5821582700256
:0685C0001583E038F022F3
:1085C600A3F8E0C5F025F0F0E58215827002158368
:0685D600E0C838F0E822C5
:1085DC00BB010A89828A83E0F5F0A3E0225006876A
:1085EC00F009E71922BBFE07E3F5F009E31922892C
:0B85FC00828A83E493F5F0740193225F
:10860700BB0110E58229F582E5833AF583E0F5F0B1
:10861700A3E0225009E92582F886F008E622BBFE8E
:108627000AE92582F8E2F5F008E222E5832AF583D4
:08863700E993F5F0A3E9932299
:10863F00BB010A89828A83F0E5F0A3F0225006F786
:0F864F0009A7F01922BBFE06F3E5F009F3192283
:10865E00EB9FF5F0EA9E42F0E99D42F0E89C45F072
:01866E0022E9
:0C866F00ECF0A3EDF0A3EEF0A3EFF0227E
:10867B00A8828583F0D083D08212869212869212C2
:10868B008692128692E473E493A3C583C5F0C583E7
:10869B00C8C582C8F0A3C583C5F0C583C8C582C849
:0186AB0022AC
:0C86AC00A42582F582E5F03583F58322D9
:1086B800D083D082F8E4937012740193700DA3A351
:1086C80093F8740193F5828883E473740293B5F088
:0D86D800067403936860E9A3A3A3A380D8F0
:0686E5008A838982E47320
:1086EB00E709F608DFFA8046E709F208DFFA803E71
:1086FB0088828C83E709F0A3DFFA8032E309F6085E
:10870B00DFFA806EE309F208DFFA806688828C83D9
:10871B00E309F0A3DFFA805A89828A83E0A3F60883
:10872B00DFFA804E89828A83E0A3F208DFFA804267
:10873B0080D280FA80C680D4805580F28029801048
:10874B0080A680EA809A80A880DA80E280CA80299D
:10875B0088848C8589828A83E493A30586F0A3059C
:10876B0086DFF5DEF3800B89828A83E493A3F60818
:10877B00DFF9ECFAA9F0EDFB2288848C8589828ADB
:10878B0083E0A30586F0A30586DFF6DEF480E3899C
:10879B00828A83E493A3F208DFF980D688F0ED2474
:1087AB0002B4040050CCF582EB2402B4040050C296
:1087BB0023234582F582EF4E60B8EF60010EE58210
:0587CB002390873B73C1
:10A15E00029D8BE493A3F8E493A34003F68001F2EF
:10A16E0008DFF48029E493A3F85407240CC8C33302
:10A17E00C4540F4420C8834004F456800146F6DFD1
:10A18E00E4800B010204081020408090A47DE47E40
:10A19E00019360BCA3FF543F30E509541FFEE493C6
:10A1AE00A360010ECF54C025E060A840B8E493A38D
:10A1BE00FAE493A3F8E493A3C8C582C8CAC583CAB8
:10A1CE00F0A3C8C582C8CAC583CADFE9DEE780BE70
:01A4F2000069
:00000001FF
